:1009EF00C0F9A4B0999282F88090FF8E010204089A
:0409FF001020408004
:1009C4000120FF012D00C108C10AC109022B00004A
:0509D400C10C01480AFE
:080A4A007F757EB8DEFEDFFCC3
:010A52002281
:10055200E5A0541F44C0F5A0E510F5823395E0F5FF
:100562008374FB2582F58274093583F583E493F560
:100572008053A01F7580FFE510B4080040030206F7
:100582001490058AF82828730205A20205AC020518
:10059200B80205C40205D00205DC0205E80205F432
:1005A200E5A0541F44E0F5A08052E5A0541F44E0AA
:1005B200F5A0AF058046E5A0541F44E0F5A0AF03C7
:1005C200803AE5A0541F44E0F5A0AF0B802EE5A0D1
:1005D200541F44E0F5A0AF0C8022E5A0541F44E074
:1005E200F5A0AF0D8016E5A0541F44E0F5A0AF0EB4
:1005F200800AE5A0541F44E0F5A0AF0FEF3395E069
:10060200FE74EF2FF58274093EF583E493F580536F
:0C061200A01F0510E510B40803E4F5106B
:01061E0022B9
:10000300E5B0F4540FFF7002FF22120A4AE5B0F480
:07001300540FFF7002FF22F1
:01001A0022C3
:10090200120003EF601E14601714601024FE6008CA
:1009120024FC7013753004227530052275300622CE
:0709220075300722E4F530F7
:0109290022AB
:10079C0075480AC290D28CAF481548EF6012308D64
:1007AC00FDA290B39290758CFF758AF4C28D80E790
:1007BC00C28CE4F58CF58AD28C309103308DFAC260
:1007CC008C308D05C28D7FFF22AF8CEFFEAD8A7C05
:1007DC0000E42DFDEC3EFCE41201C97B967A4379D2
:0A07EC008B783C12001E120202225C
:10094E008F118D12120A237FA01208D6120A03AF3E
:10095E00111208D6120A03AF121208D6120A030297
:02096E000A3E3F
:02087A008F11DC
:10087C00120A237FA01208D6120A03AF111208D64F
:10088C00120A03120A237FA11208D6120A031209B4
:0D089C00908F12D20D1209AD120A3EAF125C
:0108A900222C
:100970008F11120A237F901208D6120A037F4012A9
:1009800008D6120A03AF111208D6120A03020A3E51
:1007290074312543F8E6C3952CFDE4952BFCE412BE
:1007390001C9E4FBFA794878421201271202028EB4
:100749003F8F40AC3FAD40E41201C9E4FBFA797F29
:10075900784312001EE4FBFA79A0784012012712AF
:1007690002028E3F8F4074312543F8E6FFC3E52C22
:100779009FE52B94004005E4FF120970743125436D
:10078900F8E6FFC3E52C9FE52B94005005AF401216
:03079900097022C2
:1006AB00300C29052AE52AB43218E4F52AB20005E4
:1006BB003E7580FFE5A0541F4480F5A08520805334
:1006CB00A01FE53EB41405E4F53EC20CE52DB402C3
:1006DB00177580FFC206D207D200E5A0541F4480D5
:1006EB00F5A085208053A01FE52DB401177580FF61
:1006FB00C207D206D200E5A0541F4480F5A0852086
:10070B008053A01FE52D70157580FFD206D207E52B
:0E071B00A0541F4480F5A085208053A01F220B
:1008AA00E54964017025F54474312544F8E6FDAF45
:1008BA004412094E120A4A0544E544B40AEAAD2C28
:0C08CA007F0B12094E120A4AE4F5492285
:10092A00E4F545AF4512087A74312545F8A6070063
:10093A0000000545E545B40AEA7F0B12087A752BD3
:04094A00008F2C22CC
:0F0A1400E58954F04401F589758CFF758AF42249
:1009DA00D2AFD2ABD28EE589540F4410F589758D0A
:0509EA00F8758B3022BE
:10084100E5A0541F44A0F5A0E4F58053A01FE5A046
:10085100541F4480F5A07580FF53A01FE5A0541FCD
:1008610044C0F5A07580FF53A01FE5A0541F44E0CC
:09087100F5A07580FF53A01F22C1
:1002E6001208411209DA120A1412092A300BFDC249
:1002F6000B1209021207291208AA0546E546B4643C
:1003060008E4F54612079C8F3DE530B4041F7431AE
:100316002541F8A63D0541E541B40A03E4F541E46B
:10032600F52D120003EF70FAD20C754901E530B4D1
:100336000513B20A300A05752D018003E4F52D1266
:100346000003EF70FAE530B40613B20930090575FB
:100356002D028003E4F52D120003EF70FAE52D144B
:10036600700302049D1470030204E6240260030273
:1003760002F2E530B40708B208120003EF70FA2063
:100386000877E541B401057542098006E54124FE7A
:10039600F542E54170057542088006E54124FEF503
:1003A60042E54170057543098005E54114F543E4CE
:1003B600F52275230A74312542F8E6FF75F0648448
:1003C600F524EF75F06484E5F075F00A84F525E60A
:1003D60075F00A8485F02674312543F8E6FF75F03A
:1003E6006484F527EF75F06484E5F075F00A84F50A
:1003F60028E675F00A8485F0292008030202F2E552
:1004060041B401057542098006E54124FEF542E541
:100416004170057542088006E54124FEF542E54136
:1004260070057543098005E54114F543743125438C
:10043600F8E6FBFF74312542F8E62FF52FE433F595
:100446002E75220175230AFEAF2F7C007D641202F1
:10045600838F24AE2EAF2F7C007D641202837E0034
:100466007F0ACFCDCFCECCCE1202838F25AE2EAF54
:100476002F7C007D0A1202838D26EB75F06484F5CD
:100486002774312543F8E6FF75F06484E5F075F0CE
:100496000A84F528EF803FE530B407100547E547A5
:1004A600B40A03E4F547120003EF70FAE4F5228577
:1004B600472375260A75250A75240A74312547F8D7
:1004C600E6FF75F06484F527EF75F06484E5F07552
:1004D600F00A84F528E675F00A8485F0290202F20E
:1004E600E530B40721740A252CF52CE4352BF52BC1
:1004F600D3E52C945AE52B94004005E4F52BF52C16
:10050600120003EF70FA75220B75260A75250A7517
:10051600240A75230AAE2BAF2C7C007D641202835D
:100526008F27AE2BAF2C7C007D641202837E007F6A
:100536000ACFCDCFCECCCE1202838F28AE2BAF2CD6
:0C0546007C007D0A1202838D290202F263
:03001B000207F6E3
:1007F600C0E0C083C082C0D075D000C000C003C0B6
:1008060005C006C007758DF8758B3085250B8526C6
:100816000C85270D85280E85290FAB24AD23AF2225
:10082600120552D20B1206ABD007D006D005D00364
:0B083600D000D0D0D082D083D0E032C0
:040A3200D2A07F05CA
:080A360000AE071FEE70F9226B
:0F0A2300D2A1120A32C2A17F05120A36C2A02246
:0C0A3E00C2A1120A32D2A17F05020A36C2
:1009AD00C2A0A20D92A17F05120A36120A32C2A070
:0709BD00D2A17F05020A36FA
:100A0300120A32A2A1920DC2A07F05120A36A20DCC
:010A130022C0
:0208D600AD076C
:1008D800E4FCC2A07F05120A36ED30E704D2A180FD
:1008E80002C2A17F05120A36D2A0ED25E0FD7F05E0
:0908F800120A360CBC08DBC2A098
:0109010022D3
:10099000E4FC120A32ED25E0FD30A103430501C25B
:0C09A000A07F05120A360CBC08E8AF0569
:0109AC002228
:10001E00EC4D6011E8497017ED33EC3304600DE4DC
:10002E00FCFFFEFD22E933E8330470F802026E1283
:10003E00023958046009E4CC248150062850090284
:10004E000278284003020275C0E0EB4A7044B98082
:10005E0006D0E0FB020264EF4E701CBD8008EBFF81
:10006E00EAFEE9FD80EBE98DF0A4FEE5F002010762
:10007E00E9CDF9EAFEEBFFEF89F0A4FCE5F0CE89BD
:10008E00F0A42EFFE435F0CD89F0A42DFEE435F07A
:10009E008067EF4E7005BD80D780C3EF8BF0A4ACA8
:1000AE00F0EE8BF0A42CFCE435F0F8EF8AF0A42CE3
:1000BE00E5F038FCE433CB8DF0A42CFCE5F03BF8F6
:1000CE00EE8AF0A42CFCE5F038F8E433CF89F0A4E6
:1000DE002CFCE5F038CF3400CE89F0A42FFFE5F0EC
:1000EE003EFEE433C98DF0A42EFEE5F039CD8AF044
:1000FE00A42FFFE5F03EFEE43DFD33D0E0FB5007BC
:10010E000BBB000F020278EC2CFCEF33FFEE33FE3C
:06011E00ED33FD0202506A
:10012400020278EC5D046005E85904700302026E73
:10013400120239580460F6EC4860F2EC7004FDFEDB
:10014400FF22C860DB2481C85009C39860025006AE
:100154000202759850CAF582E9294B4A7005AB82B0
:1001640002026475F0007C1A7880C3EF9BEE9AED6E
:1001740099400DC3EF9BFFEE9AFEED99FDE842F026
:10018400DC23ACF0D0E0FFD0E0FED0E0FDAB822079
:10019400E7101BEB60BAEC2CFCEF33FFEE33FEED03
:1001A40033FD020250E803F830E705C0F075F000B3
:1001B400EF2FFFEE33FEED33FD40B830E7C280AAE7
:1001C40075F020800E75F010800575F0087D007EB6
:1001D400007F003392D530D5031202D8EC3340109F
:1001E400EF33FFEE33FEED33FDEC33FCD5F0ED22BF
:0E01F400E5F0247EA2D513CC92E7CDCEFF22FB
:10020200EDD2E7CD33EC3392D524814006E4FFFEF4
:10021200FDFC22FCE4CFCECDCC24E0501174FF8053
:10022200EDC3CC13CCCD13CDCE13CECF13CF0470F0
:07023200F030D5DE0202D816
:10023900E9D2E7C933E833F892D5EDD2E7CD33EC0B
:0702490033FC5002B2D52284
:10025000EC30E7100FBF000C0EBE00080DBD00040F
:100260000BEB6014A2D5EB13FCED92E7FD2274FFBB
:10027000FCFDFEFF22E480F8A2D574FF13FC7D8014
:03028000E480EF28
:0300000002061FD6
:0C061F00787FE4F6D8FD7581490206667C
:10028300BC000BBE0029EF8DF084FFADF022E4CC5F
:10029300F875F008EF2FFFEE33FEEC33FCEE9DEC28
:1002A300984005FCEE9DFE0FD5F0E9E4CEFD22ED6E
:1002B300F8F5F0EE8420D21CFEADF075F008EF2FB8
:1002C300FFED33FD4007985006D5F0F222C398FDA9
:0502D3000FD5F0EA2246
:0E02D800C3E49FFFE49EFEE49DFDE49CFC2237
:10062B000202E6E493A3F8E493A34003F68001F2FD
:10063B0008DFF48029E493A3F85407240CC8C333D0
:10064B00C4540F4420C8834004F456800146F6DF9F
:10065B00E4800B01020408102040809009C4E47E62
:10066B00019360BCA3FF543F30E509541FFEE49394
:10067B00A360010ECF54C025E060A840B8E493A35B
:10068B00FAE493A3F8E493A3C8C582C8CAC583CA86
:10069B00F0A3C8C582C8CAC583CADFE9DEE780BE3E
:0109D900001D
:00000001FF
