:100BEC00C0F9A4B0999282F88090FF7FC18EC601A3
:070BFC0002040810204080F4
:100C5C000120FF013F00C10EC10DC10C0135000187
:020C6C00320153
:080CC2007F757EB8DEFEDFFC49
:010CCA002207
:1008A2007580FFE5A0541F44C0F5A0E510F5823322
:1008B20095E0F58374FB2582F582740B3583F5830D
:1008C200E493F58053A01FE510B408004003020929
:1008D200649008DAF82828730208F20208FC020978
:1008E2000802091402092002092C020938020944EB
:1008F200E5A0541F44E0F5A08052E5A0541F44E057
:10090200F5A0AF058046E5A0541F44E0F5A0AF0373
:10091200803AE5A0541F44E0F5A0AF0B802EE5A07D
:10092200541F44E0F5A0AF0C8022E5A0541F44E020
:10093200F5A0AF0D8016E5A0541F44E0F5A0AF0E60
:10094200800AE5A0541F44E0F5A0AF0FEF3395E015
:10095200FE74EC2FF582740B3EF583E493F580531D
:0C096200A01F0510E510B40803E4F51018
:01096E002266
:10000300E5B0F4540FFF7002FF22120CC2E5B0F406
:07001300540FFF7002FF22F1
:01001A0022C3
:100B0A00120003EF601E14601714601024FE6008C0
:100B1A0024FC7013753004227530052275300622C4
:070B2A0075300722E4F530ED
:010B310022A1
:100C3100120C807F90120ADE120C6F7F03120ADE03
:060C4100120C6F020CB65C
:100A7000120C807F91120ADE120C6F120B998F11EB
:100A8000D20F120C03120CB6AC11E412053DE4FBBC
:100A9000FA7948784212038DE4FBFA797F784312A1
:070AA00004961205718F118D
:010AA700222C
:100B59008F118D12120C807FA0120ADE120C6FAF5A
:100B690011120ADE120C6FAF12120ADE120C6F029A
:020B79000CB6B8
:060AA8003400F53B7F0560
:020AAE008F11A6
:100AB000120C807FA0120ADE120C6FAF11120ADE38
:100AC000120C6F120C807FA1120ADE120C6F120B37
:0D0AD000998F12D20F120C03120CB6AF1248
:010ADD0022F6
:10065500AB07AA06C3EB940AEA94005011752D0A5C
:10066500752C0A752B0A752A0A75280A8B2ED3EB69
:100675009409EA9400402EEB9464EA9400502675A0
:100685002C0A752B0A752A0A75280A7C007D0AAF83
:1006950003AE021205F28F2D7C007D0AAF03AE0278
:1006A5001205F28D2ED3EB9463EA94004045EB944A
:1006B500E8EA9403503D752B0A752A0A75280A7CC9
:1006C500007D64AF03AE021205F28F2C7C007D64C1
:1006D500AF03AE021205F27E007F0ACFCDCFCECC9E
:1006E500CE1205F28F2D7C007D0AAF03AE021205F6
:1006F500F28D2ED3EB94E7EA9403405CEB9410EA79
:1007050094275054752A0A75280A7C037DE8AF039F
:10071500AE021205F28F2B7C037DE8AF03AE021209
:1007250005F27E007F64CFCDCFCECCCE1205F28F01
:100735002C7C007D64AF03AE021205F27E007F0AB9
:10074500CFCDCFCECCCE1205F28F2D7C007D0AAF5A
:1007550003AE021205F28D2ED3EB940FEA942740D7
:100765006B75280A7C277D10AF03AE021205F28F48
:100775002A7C037DE8AF03AE021205F27E037FE813
:10078500CFCDCFCECCCE1205F28F2B7C037DE8AF3B
:1007950003AE021205F27E007F64CFCDCFCECCCE64
:1007A5001205F28F2C7C007D64AF03AE021205F2B8
:1007B5007E007F0ACFCDCFCECCCE1205F28F2DAEE7
:0D07C50002AF037C007D0A1205F28D2E228A
:0E0C8F00E58954F04405F589E4F58AF58C22D8
:100C4700D2AFD2ABD28EE589540F4410F589758D9A
:050C5700F8758B30224E
:100A3700E5A0541F44A0F5A0E4F58053A01FE5A04E
:100A4700541F4480F5A07580FF53A01FE5A0541FD5
:100A570044C0F5A07580FF53A01FE5A0541F44E0D4
:090A6700F5A07580FF53A01F22C9
:10001E00120A37120C47120C8F120C31120BB6E467
:10002E00FF120AAE8F267F01120AAEEF7F00FEC0CE
:10003E0006C0077F02120AAEEFFDD0E02DF53CD0D0
:10004E00E0120AA8EF7F00FEC006C0077F06120A64
:10005E00AEEFFDD0E02DF539D0E03400F538300BA1
:10006E00FDC20B120B0A0534E534B43208E4F53444
:10007E00120A708F2F0531E531B4640AE4F531129E
:10008E0009FB8E408F41E53F6003020174E530B4F9
:10009E0004100524E524B40303E4F524120003EF51
:1000AE0070FAE52414603614604B240260030201DA
:1000BE007475250C752C0A752B0A752A0A75280A73
:1000CE0075270AE52F75F00A84F52DE52F75F00AD0
:1000DE008485F02E7580FFC202D200807975250DC1
:1000EE0075270AAF23AE221206557580FFC201D2C4
:1000FE0000D202806375250E752A0A75280A7527A7
:10010E000AAE40AF417C037DE81205F28F2BAE4064
:10011E00AF417C037DE81205F27E007F64CFCDCF28
:10012E00CECCCE1205F28F2CAE40AF417C007D645A
:10013E001205F27E007F0ACFCDCFCECCCE1205F2C5
:10014E008F2DAE40AF417C007D0A1205F28D2E75CB
:10015E0080FFC200D202D201E5A0541F4480F5A058
:10016E0085208053A01FE530B4050CE53F7008D202
:10017E000E120003EF70FA300E36AD2FE4FF120BA5
:10018E0059120CC2E522FD7F01120B59120CC2ADA1
:10019E00237F02120B59120CC2E540FD7F05120B94
:1001AE0059120CC2AD417F06120B59120CC2C20E6F
:1001BE00E5306406701CE53F64036016B20D120054
:1001CE0003EF70FA200D05E4F53FC20C300D0375F8
:1001DE003F01E53F640160030202DE200C40FF1286
:1001EE000AAE8F267F01120AAEEF7F00FEC006C058
:1001FE00077F02120AAEEFFDD0E02DF53CD0E012E3
:10020E000AA8EF7F00FEC006C0077F06120AAEEFF7
:10021E00FDD0E02DF539D0E03400F538D20CE530C4
:10022E00B40410053EE53EB40303E4F53E120003AC
:10023E00EF70FAE53E14602F14603B240260030257
:10024E0002DE75250C752C0A752B0A752A0A75287F
:10025E000A75270AE52675F00A84F52DE52675F050
:10026E000A8485F02E806975250D75270AAF3CAE80
:10027E003B120655805A75250E752A0A75280A7581
:10028E00270AAE38AF397C037DE81205F28F2BAE0C
:10029E0038AF397C037DE81205F27E007F64CFCD46
:1002AE00CFCECCCE1205F28F2CAE38AF397C007D7E
:1002BE00641205F27E007F0ACFCDCFCECCCE1205D2
:1002CE00F28F2DAE38AF397C007D0A1205F28D2EDD
:1002DE00E530B407100535E535B403037535011265
:1002EE000003EF70FAE535B40103753F03E535B44D
:1002FE000203E4F53FE53F64037047E530B4061FA3
:10030E00E532B4320575320180020532D20912008F
:10031E0003EF70FAC209E4F536F537F529C20A750E
:10032E00250C752C0A752B0A752A0A75280A75274D
:10033E000AE53275F00A84F52DE53275F00A8485EA
:10034E00F02EE52FD3953240200533E533B4640506
:10035E00E4F533B2077580FFE5A0541F4480F5A085
:10036E0085208053A01F02006C7580FFD207E5A088
:0F037E00541F4480F5A085208053A01F02006CFF
:03001B000207D207
:1007D200C0E0C0F0C083C082C0D075D000C000C0ED
:1007E20003C004C005C006C007758DF8758B30853F
:1007F2002A0B852B0C852C0D852D0E852E0FAB28F3
:10080200AD27AF251208A2D20B053DE53D64FA7073
:1008120028F53DB208300808F58CF58AD28C80198B
:10082200C28CAF8CEFFEAD8A7C00E42DFFEC3EFE65
:10083200EF25E0F523EE33F52230094D0537E53794
:1008420070020536FFAE36BE0105BF9002D20A30F5
:100852000A370529E529B4640D7529000532E53208
:10086200B4320375320175250C752C0A752B0A7585
:100872002A0A75280A75270AE53275F00A84F52DC9
:10088200E53275F00A8485F02ED007D006D005D067
:1008920004D003D000D0D0D082D083D0F0D0E032C8
:040CAA00D2A07F0550
:080CAE0000AE071FEE70F922F1
:0F0C8000D2A1120CAAC2A17F05120CAEC2A022F3
:0C0CB600C2A1120CAAD2A17F05020CAE54
:100C0300C2A0A20F92A17F05120CAE120CAAC2A021
:070C1300D2A17F05020CAE27
:100C6F00120CAAA2A1920FC2A07F05120CAEA20F66
:010C7F002252
:020ADE00AD0762
:100AE000E4FCC2A07F05120CAEED30E704D2A18079
:100AF00002C2A17F05120CAED2A0ED25E0FD7F055C
:090B0000120CAE0CBC08DBC2A013
:010B090022C9
:100B9900E4FC120CAAED25E0FD30A103430501C2D6
:0C0BA900A07F05120CAE0CBC08E8AF05E4
:010BB500221D
:040C1A007F057E00D4
:100C1E00EF1FAA0670011E4A60087D0CED60F11DE3
:020C2E0080FA4A
:010C300022A1
:020B7B00A907C8
:100B7D00E4FBC294E9139294120C1AD294E9C313B4
:0C0B8D00F90BBB08ED7F057E00020C1E7A
:100BD200E4FBC294ECC313FCD2943094034304802C
:090BE200120C1A0BBB08EBAF0466
:010BEB0022E7
:100B3200C20FD2947F0C7E00120C1EC2947F507E94
:100B420000120C1ED2947F0A7E00120C1EA29492F6
:060B52000F120C1AA20FA5
:010B5800227A
:100BB600120B327FCC120B7B7F4E120B7BE4FF12A3
:0C0BC6000B7BE4FF120B7B7F7F020B7B9C
:0D0C9D00120B327FCC120B7B7F44020B7BCD
:1009FB00120B327FCC120B7B7FBE120B7B120BD2F6
:100A0B007511008F12120BD28F82120C9DE5827F13
:100A1B0000FEEF2512FDE5113EFCE4120538E4FB68
:0B0A2B00FA79C8784012038D120571A3
:010A3600229D
:10038D00EC4D6011E8497017ED33EC3304600DE46A
:10039D00FCFFFEFD22E933E8330470F80205DD129F
:1003AD0005A858046009E4CC2481500628500902A0
:1003BD0005E72840030205E4C0E0EB4A7044B9802C
:1003CD0006D0E0FB0205D3EF4E701CBD8008EBFF9D
:1003DD00EAFEE9FD80EBE98DF0A4FEE5F00204767E
:1003ED00E9CDF9EAFEEBFFEF89F0A4FCE5F0CE894B
:1003FD00F0A42EFFE435F0CD89F0A42DFEE435F008
:10040D008067EF4E7005BD80D780C3EF8BF0A4AC35
:10041D00F0EE8BF0A42CFCE435F0F8EF8AF0A42C70
:10042D00E5F038FCE433CB8DF0A42CFCE5F03BF883
:10043D00EE8AF0A42CFCE5F038F8E433CF89F0A473
:10044D002CFCE5F038CF3400CE89F0A42FFFE5F079
:10045D003EFEE433C98DF0A42EFEE5F039CD8AF0D1
:10046D00A42FFFE5F03EFEE43DFD33D0E0FB500749
:10047D000BBB000F0205E7EC2CFCEF33FFEE33FE58
:06048D00ED33FD0205BF86
:100493000205E7EC5D046005E8590470030205DD1D
:1004A3001205A8580460F6EC4860F2EC7004FDFEF7
:1004B300FF22C860DB2481C85009C398600250063C
:1004C3000205E49850CAF582E9294B4A7005AB82CC
:1004D3000205D375F0007C1A7880C3EF9BEE9AED8A
:1004E30099400DC3EF9BFFEE9AFEED99FDE842F0B4
:1004F300DC23ACF0D0E0FFD0E0FED0E0FDAB822007
:10050300E7101BEB60BAEC2CFCEF33FFEE33FEED90
:1005130033FD0205BFE803F830E705C0F075F000CE
:10052300EF2FFFEE33FEED33FD40B830E7C280AA74
:1005330075F020800E75F010800575F0087D007E43
:10054300007F003392D530D503120647EC334010B9
:10055300EF33FFEE33FEED33FDEC33FCD5F0ED224C
:0E056300E5F0247EA2D513CC92E7CDCEFF2288
:10057100EDD2E7CD33EC3392D524814006E4FFFE82
:10058100FDFC22FCE4CFCECDCC24E0501174FF80E1
:10059100EDC3CC13CCCD13CDCE13CECF13CF04707E
:0705A100F030D5DE02064731
:1005A800E9D2E7C933E833F892D5EDD2E7CD33EC99
:0705B80033FC5002B2D52212
:1005BF00EC30E7100FBF000C0EBE00080DBD00049D
:1005CF000BEB6014A2D5EB13FCED92E7FD2274FF49
:1005DF00FCFDFEFF22E480F8A2D574FF13FC7D80A2
:0305EF00E480EFB6
:0300000002096F83
:0C096F00787FE4F6D8FD7581410209B6DE
:1005F200BC000BBE0029EF8DF084FFADF022E4CCED
:10060200F875F008EF2FFFEE33FEEC33FCEE9DECB5
:10061200984005FCEE9DFE0FD5F0E9E4CEFD22EDFB
:10062200F8F5F0EE8420D21CFEADF075F008EF2F45
:10063200FFED33FD4007985006D5F0F222C398FD36
:050642000FD5F0EA22D3
:0E064700C3E49FFFE49EFEE49DFDE49CFC22C4
:10097B0002001EE493A3F8E493A34003F68001F274
:10098B0008DFF48029E493A3F85407240CC8C3337D
:10099B00C4540F4420C8834004F456800146F6DF4C
:1009AB00E4800B0102040810204080900C5CE47E74
:1009BB00019360BCA3FF543F30E509541FFEE49341
:1009CB00A360010ECF54C025E060A840B8E493A308
:1009DB00FAE493A3F8E493A3C8C582C8CAC583CA33
:1009EB00F0A3C8C582C8CAC583CADFE9DEE780BEEB
:010C6E000085
:00000001FF
