:0300000002008675
:0C008600787FE4F6D8FD75810802007751
:10000300E4F589758BE0758DFEC2ABD28E75985081
:08001300758E40D2ACD2AF2281
:03002300020026B2
:10002600C0E0C0F0C083C082C0D075D000C000C0A0
:1000360001C002C003C004C005C006C00730981640
:10004600C298859908E50804FF12001B7F5A120022
:100056001B7FA512001BD007D006D005D004D00305
:10006600D002D001D000D0D0D082D083D0F0D0E062
:010076003257
:08001B008F993099FDC2992272
:0F0077001200037F5A12001B7FA512001B80FE90
:00000001FF
