:0B018300C0F9A4B0999282F88090FFB0
:10016F0008090A0A0A0A0A0A0A0A011100011200FA
:03017F0001080074
:06018E0090A000E4F02245
:0700030090800074FFF02261
:10009A0012018E120003438E805389F0758ACD7542
:1000AA008CD4C28DD28CD2A9D2AFAF087E00C3EF56
:1000BA00946474809480400AE50875F06484F509B4
:1000CA00800375090AC3EF940AEE64809480401095
:1000DA00E50875F06484E5F075F00A84F50A800392
:0E00EA00750A0AE50875F00A8485F00B80BCE3
:03000B000200F8F8
:1000F800C0E0C0F0C083C082C0D075D000C000C0CE
:1001080001C002C003C004C005C006C0070512E54F
:100118001264C87004F512050812013FD007D00612
:10012800D005D004D003D002D001D000D0D0D082E6
:07013800D083D0F0D0E032CB
:10013F0090E00074FFF0AF11A8077401088002C3AC
:10014F0033D8FC90C000F074092511F8E6900183B4
:10015F009390E000F00511E51164087002F511228B
:0300000002000EED
:0C000E00787FE4F6D8FD758112020055E1
:10001A0002009AE493A3F8E493A34003F68001F262
:10002A0008DFF48029E493A3F85407240CC8C333E7
:10003A00C4540F4420C8834004F456800146F6DFB6
:10004A00E4800B010204081020408090016FE47ED6
:10005A00019360BCA3FF543F30E509541FFEE493AB
:10006A00A360010ECF54C025E060A840B8E493A372
:10007A00FAE493A3F8E493A3C8C582C8CAC583CA9D
:10008A00F0A3C8C582C8CAC583CADFE9DEE780BE55
:01018200007C
:00000001FF
