:030000000200CE2D
:0C00CE00787FE4F6D8FD7581070200E39E
:1000A800FD7F041200EB7F607EEA1200B97F607E5C
:0100B800EA5D
:1000B900EF1FAC0670011E4C70F6EF1FAC06700105
:0500C9001E4C70F62240
:10007D00EF24FB60111460151460192403701BD25A
:10008D00A7C2A6C2A522D2A7C2A6D2A522D2A7D206
:0B009D00A6C2A522D2A7D2A6D2A5229F
:0600EB0012007D8D802251
:10000300E4FBFAE41200A87DFF1200A90BBB000178
:100013000AEB64034A70EC7A007B01AF03A8077410
:10002300FF088002C333D8FC1200A80BBB00010AEF
:10003300EB64094A70E57F0512007D75801012009C
:10004300AEE4F5807F0412007D7A007B01AF03A844
:100053000774FF088002C333D8FCF4F5801200AEA6
:100063000BBB00010AEB64094A70E27F0512007DB5
:090073007580401200AEE4F58036
:01007C002261
:0900DA007F0512007DE4F580228F
:0800E3001200DA12000380FB99
:00000001FF
