:10051800C0F9A4B0999282F88090FFBFC601020486
:050528000810204080D6
:05000300011200C10024
:080537007F6C7E91DEFEDFFC0B
:01053F002299
:100224007580FFE5A0541F44C0F5A0E5299005257D
:1002340093F58053A01FE529B4080040030202C7C8
:1002440090024BF828287302026302026E020279BC
:1002540002028402029002029C0202A80202B4E595
:10026400A0541F44E0F5A0EF8050E5A0541F44E0E3
:10027400F5A0ED8045E5A0541F44E0F5A0EB803ADD
:10028400E5A0541F44E0F5A0E524802EE5A0541F0A
:1002940044E0F5A0E5258022E5A0541F44E0F5A044
:1002A400E5268016E5A0541F44E0F5A0E527800A62
:1002B400E5A0541F44E0F5A0E52890051893F580C7
:0D02C40053A01F0529E529B40803E4F5291E
:0102D100220A
:1004BF00E5B0F4540FFF7002FF22120537E5B0F4D8
:0704CF00540FFF7002FF2231
:0104D6002203
:1003F5001204BFEF601E14601714601024FE60081D
:1004050024FC701375110122751102227511032246
:0704150075110422E4F5114A
:01041C0022BD
:1004EE00D2AFD2A9D28CE58954F04401F589758C2E
:0504FE00FF758A9C223D
:10050300D2AFD2ABD28EE589540F4410F589758DE5
:05051300F8758B302299
:10001E00E5A0541F44A0F5A0E4F58053A01FE5A071
:10002E00541F4480F5A07580FF53A01F12050312C4
:10003E0004EE120489E513B401FBE4F5131203F583
:10004E00E511B401100510E510B40303E4F5101228
:10005E0004BFEF70FAE511B40214743C2512F512C8
:10006E00D394784003E4F5121204BFEF70FAE51151
:10007E00B4030BC2B4E4F5121204BFEF70FAE5112B
:10008E00B40408B2001204BFEF70FA2000507508D5
:10009E000BE51004F509750A0B750B0AE512FB7AD0
:1000AE00007C037DE8FF7E0012035E8F0C7C037DD7
:1000BE00E8AF037E0012035E7E007F64CFCDCFCE0D
:1000CE00CCCE12035E8F0DE51275F06484E5F075EB
:1000DE00F00A84F50EE51275F00A8485F00F3000F3
:1000EE004875080B750904750A0BE51275F00A843C
:1000FE00F50BE51275F00A8485F00C0516E5167001
:10010E00020515FFAE15BE0720BFD01DE4F515F58F
:10011E0016120444EF75F00A84F50D120444EF75BF
:10012E00F00A8485F00E750F0C0518E5187002059F
:10013E0017FFAE17BE2712BF100FE4F517F518E51F
:10014E00127004F51280021512E51014603E147040
:10015E00030201DF24026003020043E5126024055E
:10016E0014E514B40A05E4F514D2B4E514B402028D
:10017E00C2B47580FFE5A0541F4480F5A07580FEC3
:10018E0053A01FE5126003020043802FE512602486
:10019E000514E514B40A05E4F514D2B4E514B40359
:1001AE0002C2B47580FFE5A0541F4480F5A075808F
:1001BE00FD53A01FE5126003020043C2B47580FF19
:1001CE00E5A0541F4480F5A07580FF53A01F0200C8
:1001DE0043E51260240514E514B40A05E4F514D2BF
:1001EE00B4E514B40702C2B47580FFE5A0541F44F1
:1001FE0080F5A07580FB53A01FE51260030200433B
:10020E00C2B47580FFE5A0541F4480F5A07580FF31
:06021E0053A01F02004383
:03001B000203B32A
:1003B300C0E0C083C082C0D075D000C000C003C0FD
:1003C30005C007758DF8758B30850B24850C258545
:1003D3000D26850E27850F28AB0AAD09AF0812023B
:1003E30024D007D005D003D000D0D0D082D083D082
:0203F300E032F6
:03000B0002052DBE
:0A052D00758CFF758A9C751301326E
:0404D7007F057E001F
:1004DB00EF1FAA0670011E4A60087D0CED60F11D2E
:0204EB0080FA95
:0104ED0022EC
:02046B00A907DF
:10046D00E4FBC294E91392941204D7D294E9C31316
:0C047D00F90BBB08ED7F057E000204DBDC
:1004A500E4FBC294ECC313FCD29430940343048060
:0904B5001204D70BBB08EBAF04E5
:0104BE00221B
:10041D00C201D2947F0C7E001204DBC2947F507E09
:10042D00001204DBD2947F0A7E001204DBA29492A8
:06043D00011204D7A20128
:010443002296
:1004890012041D7FCC12046B7F4E12046BE4FF1221
:0C049900046BE4FF12046B7F7F02046B15
:0D000E0012041D7FCC12046B7F4402046BB2
:1004440012041D7FCC12046B7FBE12046B1204A530
:100454008F2A1204A5AC0712000EECC454F0FFE579
:060464002AC4540F2FFF13
:01046A00226F
:030000000202D227
:0C02D200787FE4F6D8FD75812A0203193C
:10035E00BC000BBE0029EF8DF084FFADF022E4CC83
:10036E00F875F008EF2FFFEE33FEEC33FCEE9DEC4C
:10037E00984005FCEE9DFE0FD5F0E9E4CEFD22ED92
:10038E00F8F5F0EE8420D21CFEADF075F008EF2FDC
:10039E00FFED33FD4007985006D5F0F222C398FDCD
:0503AE000FD5F0EA226A
:1002DE0002001EE493A3F8E493A34003F68001F218
:1002EE0008DFF48029E493A3F85407240CC8C33321
:1002FE00C4540F4420C8834004F456800146F6DFF0
:10030E00E4800B0102040810204080900003E47E7C
:10031E00019360BCA3FF543F30E509541FFEE493E4
:10032E00A360010ECF54C025E060A840B8E493A3AB
:10033E00FAE493A3F8E493A3C8C582C8CAC583CAD6
:10034E00F0A3C8C582C8CAC583CADFE9DEE780BE8E
:0100080000F7
:00000001FF
