:0300000002041CDB
:0C041C00787FE4F6D8FD75813A02046395
:1006A70073797374656D2069732072756E6E696EE8
:1006B700672E2E2E210D0A00C0F9A4B0999282F858
:0F06C7008090FFBF8EC8C1010204081020408040
:10087100012AFF01300002330000022D0000012F88
:070881000001230001370014
:10000E00EF1FAC0670011E4C70F6EF1FAC067001B0
:05001E001E4C70F622EB
:1008B700E52AF580E5A0541F4480F5A0C280858015
:0508C7002A53A01F22CE
:1008CC00E52AF580E5A0541F4480F5A0D2808580F0
:0508DC002A53A01F22B9
:1008E100E52AF580E5A0541F4480F5A0C2818580EA
:0508F1002A53A01F22A4
:1008F600E52AF580E5A0541F4480F5A0D2818580C5
:050906002A53A01F228E
:10090B00E52AF580E5A0541F4480F5A0C2828580BE
:05091B002A53A01F2279
:10092000E52AF580E5A0541F4480F5A0D282858099
:050930002A53A01F2264
:10093500E52AF580E5A0541F4480F5A0C283858093
:050945002A53A01F224F
:10094A00E52AF580E5A0541F4480F5A0D28385806E
:05095A002A53A01F223A
:1001C9007580FFE5A0541F44C0F5A0E513F58233FF
:1001D90095E0F58374CE2582F58274063583F5831F
:1001E900E493F58053A01FE513B40800400302020D
:1001F9009A900201F82828730202190202240202C5
:100209002F02023A020246020252020275020287D4
:10021900E5A0541F44E0F5A0EF805BE5A0541F441E
:10022900E0F5A0ED8050E5A0541F44E0F5A0EB8077
:1002390045E5A0541F44E0F5A0E50E8039E5A0543A
:100249001F44E0F5A0E50F802DE5A0541F44E0F51B
:10025900A0E530B4010CE5109006BF93547FF580FA
:10026900802CE5109006BF93F5808022E5A0541FED
:1002790044E0F5A0E5119006BF93F5808010E5A054
:10028900541F44E0F5A0E5129006BF93F58053A0F2
:0B0299001F0513E513B40803E4F51380
:0102A4002237
:0409AD007F647E00E5
:0B09B100EF1FAC0670011E4C70F62218
:10085900E5B0F4540FFD7002FF221209ADED7002EC
:07086900FF221209ADAF05EB
:010870002265
:10070200120859EF601E14601714601024FE60086E
:1007120024FC7013752B0122752B0222752B0322E8
:08072200752B0422E4F52B22E3
:1005C10075B0CFC2C4C2C2E5B0F4540F7002FF22AD
:1005D1001209AD75B0CFC2C4C2C2E5B0F4540FFF69
:1005E1007002FF2275B0F0D2C4D2C2E5B0F454302B
:1005F100FE20C40343068020C203430640EF2EFFC2
:0106010022D6
:1004A8001205C1EF1203F6052600052211051E12DA
:1004B800051A14051618051221050E22050A240529
:1004C800062805024104FE4204FA4404F64804F2F0
:1004D8008104EE8204EA8404E68800000529752B6D
:1004E8000422752B0522752B0622752B0722752BE6
:1004F8000822752B0922752B0A22752B0B22752BC6
:100508000C22752B0D22752B0E22752B0F22752BA5
:100518001022752B1122752B1222752B1322E4F54C
:020528002B2284
:100776008F148D151209BC7FA01206D612099BAFE5
:10078600141206D612099BAF151206D612099B0241
:0207960009D781
:020677008F16DC
:100679001209BC7FA01206D612099BAF161206D624
:1006890012099B1209BC7FA11206D612099B1200FE
:0D069900008F177F011208891209D7AF17D3
:0106A6002231
:1007D30012072A7FCC1207987F4E120798E4FF1264
:0C07E3000798E4FF1207987F7F02079838
:1006020012072A7FCC1207987FBE12079812083F62
:100612008F0912083F8F0812072A7FCC1207987F92
:1006220044120798E508FE7C00E42509FFEC3EFE33
:100632007D1912038FEF7802CEC313CE13D8F9FFC0
:010642002295
:1007EF00E4FD7F8E1209747D237F841209747D5975
:0C07FF007F821209747D457F800209741E
:100578007F851206438F38E538C4540F75F00AA4F6
:10058800FFE538540F2FF5387F831206438F39E57E
:1005980039C4540F75F00AA4FFE539540F2FF53903
:1005A8007F811206438F3AE53AC4540F75F00AA4C6
:0905B800FFE53A540F2FF53A2239
:10095F00E58954F04401F589758CF8758A30D2AF6A
:05096F00D2A9D28C2288
:1008A10053890F758BC7758DFED28E759850758ED5
:0608B10040D2ACD2AF22E0
:080003008F993099FDC299228A
:100751008B088A09890AAB08AA09A90A12037660DB
:1007610013050AE50A7002050914F9120376FF124E
:05077100000380E222FC
:10052A00E5A0541F4480F5A07580FF53A01FE5A0E5
:10053A00541F44A0F5A0E4F58053A01FE5A0541F62
:10054A0044C0F5A07580FF53A01FE5A0541F44E0E6
:10055A00F5A07580FF75290A75280A75270A752678
:0E056A000A75250A75240A75220A75210A22CF
:0109E30022F1
:1000260012052A12095F1207D31207EF1208A13030
:1000360003FDC2031209E31204A8E52BB41018123B
:1000460008E11205C1EF70FA1208F60530E530D363
:1000560094034003E4F530E52BB4040AD2011205FB
:10006600C1EF70FAC201E537605454F02450601FA6
:1000760024F0603E24207046852A80E5A0541F4463
:1000860080F5A0E537F444F0FFE580440F8018853D
:100096002A80E5A0541F4480F5A0E537F4C454F047
:1000A600440FFFE58044F05FF58085802A53A01F4A
:1000B60080097BFF7A0679A7120751E4F5373002EB
:1000C6000CC2021206028E318F32120578E53070AC
:1000D6003CE53875F00A84F521E53875F00A848523
:1000E600F02275240BE53975F00A84F525E5397596
:1000F600F00A8485F02675270BE53A75F00A84F533
:1001060028E53A75F00A8485F029020035E5306461
:1001160001704785302175220A75240A75250AAEB5
:1001260031AF327C037DE81203A18F26AE31AF32A8
:100136007C007D641203A17C007D0A1203A18D2739
:10014600AE31AF327C007D0A1203A17C007D0A121B
:1001560003A18D28AE31AF328027E5306402702DC1
:10016600853021F52275240275250475270B752621
:100176000BAE2DAF2EFC7D0A1203A18F28AE2DAF3C
:100186002E7C007D0A1203A18D29020035E530641C
:10019600036003020035853021F52275240275259A
:1001A6000475270B75260BAE2DAF2EFC7D0A1203A8
:1001B600A18F28AE2DAF2E7C007D0A1203A18D29BA
:0301C600020035FF
:03000B000202A549
:1002A500C0E0C0F0C083C082C0D075D000C000C01F
:1002B50001C002C003C004C005C006C007758CF8A4
:1002C500758A30D2030534E534700205330536E509
:1002D5003670020535646445357006D202F535F58C
:1002E50036E534B4F40DE533B40108D204753300B2
:1002F500753400300414C204052EE52E7002052D58
:100305006409452D7004F52DF52E3001311205785F
:1003150075210A75220A75240AE53875F00A84F5EF
:1003250025E53875F00A8485F02675270BE53A75BD
:10033500F00A84F528E53A75F00A8485F0298525C3
:100345000E85260F852710852811852912AB24AD2A
:1003550022AF211201C9D007D006D005D004D003A1
:10036500D002D001D000D0D0D082D083D0F0D0E060
:010375003255
:030023000209CB04
:0C09CB00309808C29885992C8599373225
:10098800E4FEC297EF1392A3EFC313FFD2970EBEF4
:0209980008F065
:01099A00223A
:10097400C29300C29700D29300120988AF051209EE
:0409840088C2932270
:10064300E4FDC29300C29700D29300120988E4FF2D
:10065300C297EDC313FD30A303430580D2970FBFA9
:1006630008EEC29300C29700D29700C2A300D2A3A0
:0306730000AF05D0
:010676002261
:04080B00D2A07F05F3
:10080F00000000000000000000000000000000AE2B
:06081F00071FEE70EB2242
:0F09BC00D2A112080BC2A17F0512080FC2A02200
:0C09D700C2A112080BD2A17F0502080F7C
:0206D600AD076E
:1006D800E4FCC2A07F0512080FED30E704D2A18028
:1006E80002C2A17F0512080FD2A0ED25E0FD7F050B
:0906F80012080F0CBC08DBC2A0C3
:0107010022D5
:1007B600E4FC12080BED25E0FD30A103430501C260
:0C07C600A07F0512080F0CBC08E8AF056E
:0107D2002204
:10099B0012080BA2A1E433FDC2A07F0512080FAF12
:0109AB000546
:0109AC002228
:10088900C2A0EF24FF92A17F0512080F12080BC224
:08089900A0D2A17F0502080FA7
:040825007F057E00CD
:10082900EF1FAA0670011E4A600BE4FDEDC3940C8C
:0508390050EE0D80F7F8
:01083E002297
:02079800A907AF
:10079A00E4FBC294E9139294120825D294E9C31394
:0C07AA00F90BBB08ED7F057E000208295A
:10083F00E4FBC294ECC313FCD294309403430480C2
:09084F001208250BBB08EBAF04F5
:01085800227D
:10072A00C205D2947F0C7E00120829C2947F507EA3
:10073A0000120829D2947F0A7E00120829A29492F4
:06074A0005120825A205BE
:010750002286
:10042800020026E493A3F8E493A34003F68001F2C4
:1004380008DFF48029E493A3F85407240CC8C333D5
:10044800C4540F4420C8834004F456800146F6DFA4
:10045800E4800B0102040810204080900871E47EBB
:10046800019360BCA3FF543F30E509541FFEE49399
:10047800A360010ECF54C025E060A840B8E493A360
:10048800FAE493A3F8E493A3C8C582C8CAC583CA8B
:10049800F0A3C8C582C8CAC583CADFE9DEE780BE43
:01088800006F
:10037600BB010689828A83E0225002E722BBFE0285
:09038600E32289828A83E49322B8
:10038F00EF8DF0A4A8F0CF8CF0A428CE8DF0A42E82
:02039F00FE223C
:1003A100BC000BBE0029EF8DF084FFADF022E4CC40
:1003B100F875F008EF2FFFEE33FEEC33FCEE9DEC09
:1003C100984005FCEE9DFE0FD5F0E9E4CEFD22ED4F
:1003D100F8F5F0EE8420D21CFEADF075F008EF2F99
:1003E100FFED33FD4007985006D5F0F222C398FD8A
:0503F1000FD5F0EA2227
:1003F600D083D082F8E4937012740193700DA3A396
:1004060093F8740193F5828883E4737402936860A9
:06041600EFA3A3A380DFA9
:00000001FF
