:030000000200DD1E
:0C00DD00787FE4F6D8FD7581290201242B
:10041C00C0F9A4B0999282F88090FFBF8EC8C10138
:07042C0002040810204080CB
:0F0598000110FF02180000021400000212000000
:10043300EF1FAC0670011E4C70F6EF1FAC06700187
:050443001E4C70F622C2
:10044800E510F580E5A0541F4480F5A0C2808580A2
:050458001053A01F225B
:10045D00E510F580E5A0541F4480F5A0D28085807D
:05046D001053A01F2246
:10047200E510F580E5A0541F4480F5A0C281858077
:050482001053A01F2231
:10048700E510F580E5A0541F4480F5A0D281858052
:050497001053A01F221C
:10049C00E510F580E5A0541F4480F5A0C28285804C
:0504AC001053A01F2207
:1004B100E510F580E5A0541F4480F5A0D282858027
:0504C1001053A01F22F2
:1004C600E510F580E5A0541F4480F5A0C283858021
:0504D6001053A01F22DD
:10040500E510FF5FF580E5A0541F4480F5A0D28379
:0704150085801053A01F2297
:1004DB00E510F580E5A0541F4480F5A0C28485800B
:0504EB001053A01F22C8
:1004F000E510F580E5A0541F4480F5A0D2848580E6
:050500001053A01F22B2
:10050500E510F580E5A0541F4480F5A0C2858580DF
:050515001053A01F229D
:10051A00E510F580E5A0541F4480F5A0D2858580BA
:05052A001053A01F2288
:10054400E4F580E5A0541F44A0F5A0D28453A01F75
:010554002284
:10055500E4F580E5A0541F44A0F5A0C28453A01F74
:010565002273
:10056600E4F580E5A0541F44A0F5A0D28653A01F51
:010576002262
:10057700E4F580E5A0541F44A0F5A0C28653A01F50
:010587002251
:10001E007580FFE5A0541F44C0F5A0E529F5823395
:10002E0095E0F583742B2582F58274043583F58370
:10003E00E493F58053A01FE529B4080040030200A5
:10004E00D2900056F828287302006E020079020042
:10005E008402008F02009B0200A70200B30200BFC1
:10006E00E5A0541F44E0F5A0EF8050E5A0541F44D6
:10007E00E0F5A0ED8045E5A0541F44E0F5A0EB802F
:10008E003AE5A0541F44E0F5A0E524802EE5A054E7
:10009E001F44E0F5A0E5258022E5A0541F44E0F5BD
:1000AE00A0E5268016E5A0541F44E0F5A0E52780C4
:1000BE000AE5A0541F44E0F5A0E52890041C93F532
:0E00CE008053A01F0529E529B40803E4F52995
:0100DC002201
:0405A8007F647E00EE
:0B05AC00EF1FAC0670011E4C70F62221
:10000300E5B0F4540FFD7002FF221205A8ED700253
:07001300FF221205A8AF0552
:01001A0022C3
:1003B700120003EF601E14601714601024FE60081B
:1003C70024FC701375110122751102227511032285
:0803D70075110422E4F5112266
:1003860020B0091205A820B00330B0FD20B1091233
:1003960005A820B10330B1FD20B2091205A820B28C
:1003A6000330B2FD20B3091205A820B30330B3FD14
:0103B6002224
:10030D0075B0CFC2C4C2C2E5B0F4540F7002FF2263
:10031D001205A875B0CFC2C4C2C2E5B0F4540FFF28
:10032D007002FF2275B0F0D2C4D2C2E5B0F45430E1
:10033D00FE20C40343068020C203430640EF2EFF78
:01034D00228D
:1001690012030DEF1203DF01E70001E31101DF12B2
:1001790001DB1401D71801D32101CF2201CB2401BE
:10018900C72801C34101BF4201BB4401B74801B3BC
:100199008101AF8201AB8401A788000001EA7511D2
:1001A9000422751105227511062275110722751190
:1001B90008227511092275110A2275110B22751170
:1001C9000C2275110D2275110E2275110F22751150
:1001D9001022751111227511122275111322E4F5DD
:0201E9001122E1
:0905B700D2B2D2B3C2C2C2C42206
:10026A0020B226C2B2D2C2D2C420C20E1205A8201F
:10027A00C21730C2FD750809800F20C40C1205A8E8
:10028A0020C40630C4FD75080520B326C2B3D2C205
:10029A00D2C420C20E1205A820C21730C2FD7508AA
:1002AA0008800F20C40C1205A820C40630C4FD75AE
:0502BA0008040205B775
:10052F00E58954F04410F589758DF8758B30D2AF8D
:05053F00D2ABD28E22B8
:10058800E58954F04405F589E4F58CF58AD28C2286
:1002BF00E5A0541F4480F5A07580FF53A01FE5A053
:1002CF00541F44A0F5A0E4F58053A01FE5A0541FD0
:1002DF0044C0F5A07580FF53A01FE5A0541F44E054
:1002EF00F5A07580FF750F0A750E0A750D0A750C4E
:0E02FF000A750B0A750A0A75090A75080A22A3
:0105C0002218
:10034E001202BF12052F1205883001FDC2011205DF
:10035E00C0120169E511B4040C12054412030DEF2D
:10036E0070FA120555E511B405DF12056612030D7C
:08037E00EF70FA12057780D13F
:03001B000201EBF4
:1001EB00C0E0C083C082C0D075D000C000C003C0C7
:1001FB0005C007758DF8758B30D2010519E519709F
:10020B00020518640545187006F518F519D2000596
:10021B0013E51370020512C394F4E5129401401612
:10022B00751200751300AF8CEFAD8AF516EDF5174F
:10023B00758C00758A00850B24850C25850D26850C
:10024B000E27850F28AB0AAD09AF0812001ED00789
:0F025B00D005D003D000D0D0D082D083D0E032F5
:1000E90002034EE493A3F8E493A34003F68001F2DC
:1000F90008DFF48029E493A3F85407240CC8C33318
:10010900C4540F4420C8834004F456800146F6DFE6
:10011900E4800B0102040810204080900598E47ED9
:10012900019360BCA3FF543F30E509541FFEE493DB
:10013900A360010ECF54C025E060A840B8E493A3A2
:10014900FAE493A3F8E493A3C8C582C8CAC583CACD
:10015900F0A3C8C582C8CAC583CADFE9DEE780BE85
:0105A7000053
:1003DF00D083D082F8E4937012740193700DA3A3AD
:1003EF0093F8740193F5828883E4737402936860C1
:0603FF00EFA3A3A380DFC1
:00000001FF
