:10040300C0F9A4B0999282F88090FF010204081009
:0304130020408006
:08045A007F6C7E91DEFEDFFCE9
:010462002277
:1001C2007580FFE5A0541F44C0F5A0E52990040EF8
:1001D20093F58053A01FE529B4080040030202965C
:1001E2009001E9F828287302020102020C02022C93
:1001F20002023702024302024F020271020283E547
:10020200A0541F44E0F5A0EF806FE5A0541F44E026
:10021200F5A0E5107009ED90040393F5808072ED6E
:1002220090040393547FF5808067E5A0541F44E057
:10023200F5A0EB8044E5A0541F44E0F5A0E524803E
:1002420038E5A0541F44E0F5A0E525802CE5A05434
:100252001F44E0F5A0E510700AE52690040393F52B
:1002620080800AE52690040393547FF5808022E57E
:10027200A0541F44E0F5A0E52790040393F5808085
:1002820010E5A0541F44E0F5A0E52890040393F57F
:0E0292008053A01F0529E529B40803E4F529CF
:0102A000223B
:10000300E5B0F4540FFF7002FF2212045AE5B0F476
:07001300540FFF7002FF22F1
:01001A0022C3
:10036700120003EF14601714601024FE600824FCC9
:10037700700F751001227510022275100322751077
:010387000471
:010388002252
:1003D8001204277F9012033B1204167F0112033B7D
:0603E8001204160204429B
:1003A6001204277F9112033B1204161203898F2A27
:0A03B600D2001203C1120442AF2A64
:0103C000221A
:1003EE00D2AFD2ABD28EE589540F4410F589758DFC
:0503FE00F8758B3022B0
:10001E00E5A0541F44A0F5A0E4F58053A01FE5A071
:10002E00541F4480F5A07580FF53A01F750F0A75ED
:10003E000E0A750D0A750C0A750B0A750A0A7509F2
:10004E000A75080A1203EE1203D8E512B401FBE496
:10005E00F512120367E510640460030200FFE51455
:10006E007007751401F515F516C2AFE5A0541F44BF
:10007E00A0F5A075801053A01FD2AF0517E5176429
:10008E00327063F5170516E51670020515B40F08E4
:10009E00E515B42703751003AE15AF167C037DE886
:1000AE001202A18F0CAE15AF167C037DE81202A1D1
:1000BE007E007F64CFCDCFCECCCE1202A18F0DAEFF
:1000CE0015AF167C007D641202A17E007F0ACFCD93
:1000DE00CFCECCCE1202A18F0EAE15AF167C007D08
:1000EE000A1202A18D0F75080AE4F509750A05F5C5
:1000FE000BE51064037077F514C2AFE5A0541F44EE
:10010E00A0F5A0E4F58053A01FD2AFE515C313F5FB
:10011E0018E51613F519AE18FF7C037DE81202A13F
:10012E008F0CAE18AF197C037DE81202A17E007F02
:10013E0064CFCDCFCECCCE1202A18F0DAE18AF199B
:10014E007C007D641202A17E007F0ACFCDCFCECC83
:10015E00CE1202A18F0EAE18AF197C007D0A1202CC
:10016E00A18D0F75080AE4F509750A05F50B05133F
:10017E00E513B46408E4F5131203A68F11E511C359
:10018E0094415018C2AF7580FFE5A0541F4480F50E
:10019E00A07580FE53A01FD2AF020058C2AF75806B
:1001AE00FFE5A0541F4480F5A07580FF53A01FD219
:0401BE00AF02005834
:03001B000202F6E8
:1002F600C0E0C083C082C0D075D000C000C003C0BB
:1003060005C007758DF8758B30850B24850C258502
:100316000D26850E27850F28AB0AAD09AF081201F9
:10032600C2751201D007D005D003D000D0D0D0823C
:05033600D083D0E0328D
:04043600D2A07F0FC2
:08043A0000AE071FEE70F9226D
:0F042700D2A1120436C2A17F0F12043AC2A02242
:0C044200C2A1120436D2A17F0F02043ABE
:1003C100C2A0A20092A17F0F12043A120436C2A069
:0703D100D2A17F0F02043AE4
:10041600120436A2A19200C2A07F0F12043AA200D3
:0104260022B3
:02033B00AD070C
:10033D00E4FCC2A07F0F12043AED30E704D2A18095
:10034D0002C2A17F0F12043AD2A0ED25E0FD7F0F6E
:09035D0012043A0CBC08DBC2A03A
:010366002274
:10038900E4FC120436ED25E0FD30A103430501C26A
:0C039900A07F0F12043A0CBC08E8AF056E
:0103A5002235
:0300000002044EA9
:0C044E00787FE4F6D8FD75812A02001EBC
:1002A100BC000BBE0029EF8DF084FFADF022E4CC41
:1002B100F875F008EF2FFFEE33FEEC33FCEE9DEC0A
:1002C100984005FCEE9DFE0FD5F0E9E4CEFD22ED50
:1002D100F8F5F0EE8420D21CFEADF075F008EF2F9A
:1002E100FFED33FD4007985006D5F0F222C398FD8B
:0502F1000FD5F0EA2228
:00000001FF
