:0B028800C0F9A4B0999282F88090FFAA
:0D02620008080A0A0A0A0A0A0A0A0110001E
:0602930090A000E4F0223F
:0700030090800074FFF02261
:10009A0012029312000353907F438E805389F075A6
:1000AA008ACD758CD4C28DD28CD2A9D2AF12023E1F
:1000BA003000FDC2001201E08F127E00C3EF94648B
:1000CA0074809480400AE51275F06484F50D80030B
:1000DA00750D0AC3EF940AEE648094804010E5120D
:1000EA0075F06484E5F075F00A84F50E8003750EE8
:0C00FA000AE51275F00A8485F00F80B44E
:03000B00020106E9
:10010600C0E0C0F0C083C082C0D075D000C000C0BF
:1001160001C002C003C004C005C006C0070511E542
:100126001164327004F511D200120186D007D00690
:10013600D005D004D003D002D001D000D0D0D082D8
:07014600D083D0F0D0E032BD
:1001860090E00074FFF0AF10A8077401088002C366
:1001960033D8FC90C000F074082510F8E690028869
:1001A6009390E000F00510E51064087002F5102247
:04027000D2A07F0594
:0802740000AE071FEE70F92235
:0F025300D2A1120270C2A17F05120274C2A022B2
:0C027C00C2A1120270D2A17F0502027420
:02014D00AD07FC
:10014F00C2AFE4FCECC39408748094805024C2A026
:10015F007F05120274ED30E704D2A18002C2A17FA5
:10016F0005120274D2A0ED25E0FD7F051202740C7A
:06017F0080D2D2AFC2A045
:010185002257
:0302290012014D72
:10022C00120270A2A1E433FDC2A07F05120274AFCA
:01023C0005BC
:01023D00229E
:1001B600C2AFE4FCECC3940874809480501712021A
:1001C60070ED25E0FD30A103430501C2A07F0512B5
:0901D60002740C80DFD2AFAF050A
:0101DF0022FD
:1001FB00C2A0EF24FF92A17F05120274120270C2FB
:08020B00A0D2A17F05020274DC
:10021300AD071FED600FE4FEEEC39470748094800D
:0502230050EE0E80F317
:0102280022B3
:10023E001202537F901202297F0312022912027CAE
:05024E007F0A0202130B
:1001E0001202537F9112014D12022C1201B6AD077B
:0A01F0007F011201FB12027CAF0533
:0101FA0022E2
:0300000002000EED
:0C000E00787FE4F6D8FD758120020055D3
:10001A0002009AE493A3F8E493A34003F68001F262
:10002A0008DFF48029E493A3F85407240CC8C333E7
:10003A00C4540F4420C8834004F456800146F6DFB6
:10004A00E4800B0102040810204080900262E47EE2
:10005A00019360BCA3FF543F30E509541FFEE493AB
:10006A00A360010ECF54C025E060A840B8E493A372
:10007A00FAE493A3F8E493A3C8C582C8CAC583CA9D
:10008A00F0A3C8C582C8CAC583CADFE9DEE780BE55
:01026F00008E
:00000001FF
