:03000000020026D5
:0C002600787FE4F6D8FD75810E02006DB5
:0A038700C0F9A4B0999282F88090AA
:10000E00010900010A00010B00010800010E0002A7
:03001E000C00FFD4
:1002B5007F041201C87F607EEA1202C57F607EEA74
:1002C500EF1FAC0670011E4C70F6EF1FAC067001F7
:0502D5001E4C70F62232
:0F01B900FDE50C5EF50CED5FF50DFDAC0C7F0464
:1001C8008D80EF603624FB601414601B14602224B9
:1001D80003702BE5A0541F4480F5A08021E5A054AE
:1001E8001F44A0F5A08017E5A0541F44C0F5A080C7
:1001F8000DE5A0541F44E0F5A0800353A01F53A0B1
:020208001F22B3
:10010E00E4FBEBC3940874809480501D7E0074FE53
:10011E00A803088005C333CE33CED8F9F50D8E0C67
:10012E00FDAC0C1202B50B80D9E4FBEBC394087442
:10013E0080948050207E0074FEA803088005C3338F
:10014E00CE33CED8F9F4F50DEEF4F50CAD0DFC1260
:05015E0002B50B80D684
:010163002279
:10025300E4FBEBC394087480948050227E00740105
:10026300A803088005C333CE33CED8F9FDAC067F8F
:10027300061201C8E4FDFC0F1202B70B80D47DFF08
:070283007C007F070201C8A7
:1002FC00E4FDFCFF1201C87F051201C8AD0DAC0C6A
:10030C001F1201C87DFF7C007F061201C80F02017D
:01031C00C818
:10036700758921758C3C758AAFD2AFD2A9D28C2200
:10035100758921758DFD758BFDD28E759850E4F5EB
:060361008ED2AFD2AC22E7
:03000B0002028A64
:10028A00C0E0758C3C758AAF0508E50864147004F3
:10029A00F508050BE50B643C700EF50B050AE50A3B
:0B02AA00643C7004F50A0509D0E03246
:0803770075F00A84E5F04FFF68
:08037F008F993099FDC299220B
:10016400AF0E7E00EF604D540F24506017241070C2
:1001740043EFF4FFEEF4FEEF44F0FFE50D440F12FD
:1001840001B9802DE50975F00A84C454F0FFE5092E
:10019400120377E50A75F00A84C454F0FFE50A12E5
:1001A4000377E50B75F00A84C454F0FFE50B1203E2
:0501B40077E4F50E22C6
:0300230002039144
:0903910030980585990EC29832DE
:1002DA00AB057E007401A807088005C333CE33CE70
:1002EA00D8F9FDAC067F061201C8EBFD7C000F02AF
:0202FA0001C839
:0F031D0075F00A84E5F093FD1202DA7FF47E0199
:0B032C00EF1FAC0670011E4C70F622A3
:1000B200E50975F00A8490038793FDE4FF12032596
:1000C200E5097F0112031D7DBF7F02120325E50AA8
:1000D20075F00A8493FD7F03120325E50A7F04125B
:1000E200031D7DBF7F05120325E50B75F00A84937E
:1000F200FD7F06120325E50B75F00A84E5F093FDFA
:0C0102007F071202DA7FF47E0102032C5A
:10020A0020B3211200B220B31B20B3051200B28022
:10021A00F8E50DF4FFE50CF4FEEF447FFFE50D442D
:10022A00801201B920B2211200B220B21B20B205FD
:10023A001200B280F8E50DF4FFE50CF4FEEF44BFBE
:09024A00FFE50D44401201B92248
:100337001202FC12010E120253120367120351122A
:0A03470001641200B212020A80F5F0
:10003200020337E493A3F8E493A34003F68001F2AA
:1000420008DFF48029E493A3F85407240CC8C333CF
:10005200C4540F4420C8834004F456800146F6DF9E
:10006200E4800B010204081020408090000EE47E20
:10007200019360BCA3FF543F30E509541FFEE49393
:10008200A360010ECF54C025E060A840B8E493A35A
:10009200FAE493A3F8E493A3C8C582C8CAC583CA85
:1000A200F0A3C8C582C8CAC583CADFE9DEE780BE3D
:0100210000DE
:00000001FF
