:0300000002096B87
:0C096B00787FE4F6D8FD7581200209B207
:100B2600C0F9A4B0999282F88090FFBF8EC8C10127
:070B360002040810204080BA
:0B0C70000110FF02140000021200003F
:100B3D00EF1FAC0670011E4C70F6EF1FAC06700176
:050B4D001E4C70F622B1
:100B5200E510F580E5A0541F4480F5A0C280858091
:050B62001053A01F224A
:100B6700E510F580E5A0541F4480F5A0D28085806C
:050B77001053A01F2235
:100B7C00E510F580E5A0541F4480F5A0C281858066
:050B8C001053A01F2220
:100B9100E510F580E5A0541F4480F5A0D281858041
:050BA1001053A01F220B
:100BA600E510F580E5A0541F4480F5A0C28285803B
:050BB6001053A01F22F6
:100BBB00E510F580E5A0541F4480F5A0D282858016
:050BCB001053A01F22E1
:100BD000E510F580E5A0541F4480F5A0C283858010
:050BE0001053A01F22CC
:100AF800E510FF5FF580E5A0541F4480F5A0D28380
:070B080085801053A01F229D
:100BE500E510F580E5A0541F4480F5A0C2848580FA
:050BF5001053A01F22B7
:100BFA00E510F580E5A0541F4480F5A0D2848580D5
:050C0A001053A01F22A1
:100C0F00E510F580E5A0541F4480F5A0C2858580CE
:050C1F001053A01F228C
:100C2400E510F580E5A0541F4480F5A0D2858580A9
:050C34001053A01F2277
:100B0F008F1FE510F580E5A0541F4480F5A0C28526
:070B1F0085801053A01F2286
:100800007580FFE5A0541F44C0F5A0E51EF58233B6
:1008100095E0F58374352582F582740B3583F58375
:10082000E493F58053A01FE51EB4080040030208BE
:10083000B4900838F828287302085002085B0208B0
:100840006602087102087D0208890208950208A163
:10085000E5A0541F44E0F5A0EF8050E5A0541F44EC
:10086000E0F5A0ED8045E5A0541F44E0F5A0EB8045
:100870003AE5A0541F44E0F5A0E519802EE5A05408
:100880001F44E0F5A0E51A8022E5A0541F44E0F5DE
:10089000A0E51B8016E5A0541F44E0F5A0E51C80F0
:1008A0000AE5A0541F44E0F5A0E51D900B2693F542
:0E08B0008053A01F051EE51EB40803E4F51ECC
:0108BE002217
:040C61007F647E002E
:0B0C6500EF1FAC0670011E4C70F62261
:100AE000E5B0F4540FFD7002FF22120C61ED7002AC
:070AF000FF22120C61AF05AB
:010AF70022DC
:100AB800120AE0EF601E14601714601024FE60082C
:100AC80024FC70137511012275110222751103227D
:080AD80075110422E4F511225E
:1008BF0020B030120C6120B02A30B0FD200107307B
:1008CF000204C202800B200108200205D202120B83
:1008DF0067200106300203120B522001062002038B
:1008EF00120B6720B12D120C6120B12730B1FD2002
:1008FF000207300104C2018008200205200102D244
:10090F0001200206300103120B7C20020620010396
:10091F00120B9120B221120C6120B21B3002031274
:10092F000BA6300103120BE530B2FD300203120BA0
:10093F00BB300103120BFA20B321120C6120B31B41
:10094F00300203120BD0300103120C0F30B3FD3005
:0C095F000203120AF8300103120C2422DB
:100C3900E58954F04410F589758DF8758B30D2AF7C
:050C4900D2ABD28E22A7
:100A8200E5A0541F4480F5A07580FF53A01FE5A088
:100A9200541F44A0F5A0E4F58053A01FE5A0541F05
:100AA20044C0F5A07580FF53A01FE5A0541F44E089
:060AB200F5A07580FF2293
:010C7C002255
:100C4E00120A82120C393000FDC200120C7C1208FE
:030C5E00BF80F361
:03001B000209F7E0
:1009F700C0E0C083C082C0D075D000C000C003C0B3
:100A070005C007758DF8758B30D2000515E5157093
:100A1700020514B4F40DE514B40108D203751400EB
:100A2700751500300314C2030513E5137002051290
:100A3700640945127004F512F5137508027509006B
:100A4700750A02750B04750D0B750C0BAF138F0F21
:100A57008F0E850B19850C1A850D1B850E1C850FAE
:100A67001DAB0AAD09AF08120800D007D005D003A7
:0B0A7700D000D0D0D082D083D0E0327D
:10097700020C4EE493A3F8E493A34003F68001F23C
:1009870008DFF48029E493A3F85407240CC8C33381
:10099700C4540F4420C8834004F456800146F6DF50
:1009A700E4800B0102040810204080900C70E47E64
:1009B700019360BCA3FF543F30E509541FFEE49345
:1009C700A360010ECF54C025E060A840B8E493A30C
:1009D700FAE493A3F8E493A3C8C582C8CAC583CA37
:1009E700F0A3C8C582C8CAC583CADFE9DEE780BEEF
:010C7B000078
:00000001FF
