:10062000C0F9A4B0999282F88090FFBF010204083B
:0406300010204080D6
:0F065B000A3FFFFFFFFFFFFFFFFFFFFF012E0022
:080678007F6C7E91DEFEDFFCC9
:010680002257
:1002BC00E5A0541F44C0F5A0E51090062C93F580E2
:1002CC0053A01FE510B40800400302035C9002E049
:1002DC00F82828730202F802030302030E02031922
:1002EC0002032502033102033D020349E5A0541F1A
:1002FC0044E0F5A0EF8050E5A0541F44E0F5A0EDDC
:10030C008045E5A0541F44E0F5A0EB803AE5A054ED
:10031C001F44E0F5A0E50B802EE5A0541F44E0F54A
:10032C00A0E50C8022E5A0541F44E0F5A0E50D806B
:10033C0016E5A0541F44E0F5A0E50E800AE5A05494
:10034C001F44E0F5A0E50F90062093F58053A01F05
:0A035C000510E510B40803E4F510E5
:010366002274
:10000300E5B0F4540FFF7002FF22120678E5B0F456
:07001300540FFF7002FF22F1
:01001A0022C3
:10050E00120003EF601E14601714601024FE6008C2
:10051E0024FC7013752C0122752C0222752C0322DB
:07052E00752C0422E4F52CFA
:0105350022A3
:1005A200E4FD7F8E1206347D237F841206347D594A
:0C05B2007F821206347D507F80020634E8
:10044C007F851204DA8F30E530C4540F75F00AA49E
:10045C00FFE530540F2FF5307F831204DA8F2DE532
:10046C002DC4540F75F00AA4FFE52D540F2FF52D54
:10047C007F811204DA8F21E521C4540F75F00AA490
:09048C00FFE521540F2FF5212298
:1003F300E53864017039052AE52A64197031F52A54
:10040300B202200212C2AF7580FFE5A0541F4480E0
:10041300F5A07580FE8013300215C2AF7580FFE52D
:10042300A0541F4480F5A07580FF53A01FD2AFE5F1
:10043300387015C2AF7580FFE5A0541F4480F5A046
:090443007580FF53A01FD2AF2207
:10060B00D2AFD2ABD28EE589540F4410F589758DDC
:05061B00F8758B302290
:10001E00E5A0541F44A0F5A0E4F58053A01F1206DE
:10002E000B1205BE12055D8F39E534B401FBE4F504
:10003E003412050EE52CB40113200010053EE53EEA
:10004E00B40403E4F53E120003EF70FAE52CB4029B
:10005E0008D200120003EF70FAE52CB4030EE53A55
:10006E00B40109752F01120003EF70FA200044E568
:10007E003E14600F14601114601324037035753133
:10008E0001800D753105800875311E800375313C78
:10009E0075260A75250A75240A75230A75220A75AE
:1000AE00270BE53175F00A84F528E53175F00A84E1
:1000BE0085F029E53D60030202452000030202455A
:1000CE00E53770061205A275370112044CE530753E
:1000DE00F00A84F522E53075F00A8485F023053C9C
:1000EE00E53C7002053BB4F40CE53BB40107E4F5C6
:1000FE003BF53CB20120010875270B75240B8009D6
:10010E0030010675270A75240AE52D75F00A84F567
:10011E0025E52D75F00A8485F026E52175F00A8413
:10012E00F528E52175F00A8485F029E53124FB6078
:10013E004F24E770030201CF24E27003020207246A
:10014E003B6003020245E53A60030202450536E5CF
:10015E0036AE35700205351464F47003EE6401603A
:10016E0003020245F535F53612055D743F252BF871
:10017E00A607052BE52B640A600302024502023D29
:10018E00E53A60030202450536E536700205356430
:10019E00F47004E53564016003020245F535F53669
:1001AE000549E54964056003020245F54912055DFE
:1001BE00743F252BF8A607052BE52B640A70788073
:1001CE006EE53A70720536E5367002053564F470E8
:1001DE0004E53564017060F535F5360549E5496489
:1001EE001E7054F54912055D743F252BF8A60705C0
:1001FE002BE52B640A70408036E53A703A0536E5F9
:10020E00367002053564F47004E53564017028F526
:10021E0035F5360549E549B43C1DE4F54912055D51
:10022E00743F252BF8A607052BE52BB40A09E4F538
:10023E002B753A017538011203F3E53A6401600338
:10024E00020037E52F64016003020037F538753D73
:10025E00010533E53370020532D394F4E53294018F
:10026E00400FE4F532F533052EE52EB40A03E4F51E
:10027E002E75220BE4F523852E2475260A75250A84
:10028E0075270B743F252EF8E6FF75F00A84F528C6
:10029E00EF75F00A8485F029E52C640460030200F2
:0E02AE0037C200F53AF52FF52EF53D02003768
:03001B0002049547
:10049500C0E0C083C082C0D075D000C000C003C01A
:1004A50005C007758DF8758B3085250B85260C8560
:1004B500270D85280E85290FAB24AD23AF22120207
:1004C500BC753401D007D005D003D000D0D0D08280
:0504D500D083D0E032ED
:0405F4007F057E0001
:1005F800EF1FAA0670011E4A60087D0CED60F11D10
:0206080080FA76
:01060A0022CD
:02058400A907C5
:10058600E4FBC294E91392941205F4D294E9C313DE
:0C059600F90BBB08ED7F057E000205F8A4
:1005DA00E4FBC294ECC313FCD2943094034304802A
:0905EA001205F40BBB08EBAF0491
:0105F30022E5
:10053600C203D2947F0C7E001205F8C2947F507ECF
:10054600001205F8D2947F0A7E001205F8A2949252
:06055600031205F4A203EC
:01055C00227C
:1005BE001205367FCC1205847F4E120584E4FF129D
:0C05CE000584E4FF1205847F7F02058491
:0D066B001205367FCC1205847F4402058401
:10055D001205367FCC1205847FBE1205841205DA92
:10056D008F111205DAAC0712066BECC454F0FFE5DF
:06057D0011C4540F2FFF12
:010583002255
:10064800E4FEC297EF1392A3EFC313FFD2970EBE37
:0206580008F0A8
:01065A00227D
:10063400C29300C29700D29300120648AF05120677
:0406440048C29322F3
:1004DA00E4FDC29300C29700D29300120648E4FFDB
:1004EA00C297EDC313FD30A303430580D2970FBF14
:1004FA0008EEC29300C29700D29700C2A300D2A30B
:03050A0000AF053A
:01050D0022CB
:0300000002036791
:0C036700787FE4F6D8FD7581490203AEF2
:1003730002001EE493A3F8E493A34003F68001F282
:1003830008DFF48029E493A3F85407240CC8C3338B
:10039300C4540F4420C8834004F456800146F6DF5A
:1003A300E4800B010204081020408090065BE47E89
:1003B300019360BCA3FF543F30E509541FFEE4934F
:1003C300A360010ECF54C025E060A840B8E493A316
:1003D300FAE493A3F8E493A3C8C582C8CAC583CA41
:1003E300F0A3C8C582C8CAC583CADFE9DEE780BEF9
:01066A00008F
:00000001FF
