:10033F00C0F9A4B0999282F88090FF0102040810CE
:03034F00204080CB
:10001E007580FFE5A0541F44C0F5A0E51CF58233A2
:10002E0095E0F583744A2582F58274033583F58352
:10003E00E493F58053A01FE51CB4080040030200B2
:10004E00E0900056F828287302006E020078020035
:10005E008402009002009C0200A80200B40200C0BC
:10006E00E5A0541F44E0F5A08052E5A0541F44E0E3
:10007E00F5A0AF058046E5A0541F44E0F5A0AF0300
:10008E00803AE5A0541F44E0F5A0AF17802EE5A0FE
:10009E00541F44E0F5A0AF188022E5A0541F44E0A1
:1000AE00F5A0AF198016E5A0541F44E0F5A0AF1AD5
:1000BE00800AE5A0541F44E0F5A0AF1BEF3395E096
:1000CE00FE743F2FF58274033EF583E493F580535F
:1000DE00A01F051CAF1CEF3395E0FEEF64084E70B9
:0300EE0002F51CFC
:0100F10022EC
:10000300D2AFD2ABD28EE589540F4410F589758DEA
:05001300F8758B30229E
:10025A00E5A0541F44A0F5A0E4F58053A01FE5A033
:10026A00541F4480F5A07580FF53A01FE5A0541FBA
:10027A0044C0F5A07580FF53A01FE5A0541F44E0B9
:09028A00F5A07580FF53A01F22AE
:1000F20012025A1200031203231202198E108F11D8
:100102003000FDC2000513E51370020512640A45B2
:1001120012700BF512F5131202198E108F11750B56
:100122000A750A0A75090A75080AAE10AF117C032E
:100132007DE812017C8F0CAE10AF117C037DE812BA
:10014200017C7E007F64CFCDCFCECCCE12017C8FDE
:100152000DAE10AF117C007D6412017C7E007F0A1F
:10016200CFCDCFCECCCE12017C8F0EAE10AF117C94
:0A017200007D0A12017C8D0F8086CB
:03001B000201D10E
:1001D100C0E0C083C082C0D075D000C000C003C0E1
:1001E10005C006C007758DF8758B30850B17850C1A
:1001F10018850D19850E1A850F1BAB0AAD09AF08BD
:1002010012001ED200D007D006D005D003D000D0F6
:08021100D0D082D083D0E0328E
:040307007F057E00F0
:10030B00EF1FAA0670011E4A600D7D0CEDFB3395A5
:07031B00E04B60EC1D80F5D2
:0103220022B8
:020293008F1FBB
:10029500E4F9E9C39408748094805015C294E51F6D
:1002A500139294120307D294E51FC313F51F098017
:0802B500E17F057E0002030B4E
:1002E400E4FCECC39408748094805014C294E9C371
:1002F40013F9D2943094034301801203070C80E273
:02030400AF0147
:0103060022D4
:1002BD00C201D2947F0C7E0012030BC2947F507E3C
:1002CD000012030BD2947F0A7E0012030BA29492AC
:0602DD0001120307A2015B
:0102E30022F8
:100323001202BD7FCC1202937F4E120293E4FF129E
:0C0333000293E4FF1202937F7F0202930A
:0D0352001202BD7FCC1202937F4402029381
:100219001202BD7FCC1202937FBE1202931202E436
:10022900751D008F1E1202E48F82120352E582C4EB
:10023900F8540FC868FDE4C454F048FCE51DC4F83F
:1002490054F0C868FEE51EC4540F482DFFEE3CFE6D
:010259002282
:0300000002035F99
:0C035F00787FE4F6D8FD7581200200F2E2
:10017C00BC000BBE0029EF8DF084FFADF022E4CC67
:10018C00F875F008EF2FFFEE33FEEC33FCEE9DEC30
:10019C00984005FCEE9DFE0FD5F0E9E4CEFD22ED76
:1001AC00F8F5F0EE8420D21CFEADF075F008EF2FC0
:1001BC00FFED33FD4007985006D5F0F222C398FDB1
:0501CC000FD5F0EA224E
:00000001FF
