:030000000209F4FE
:0C09F400787FE4F6D8FD758169020A3BAB
:100E12004920616D204F4B0D0A0073797374656D23
:100E22002069732072756E6E696E672E2E2E210DEB
:100E32000A00C0F9A4B0999282F88090FFBF8EC8D0
:090E4200C10102040810204080E7
:100E7F00012DFF016116016455016650022F001705
:100E8F000231003B0234002D013E000249000002F6
:100E9F00390000024B0000C188013B000124000112
:020EAF005E00E3
:10000E00EF1FAC0670011E4C70F6EF1FAC067001B0
:05001E001E4C70F622EB
:10107400E52DF580E5A0541F4480F5A0C28085804D
:081084002D53A01F755001223D
:10108C00E52DF580E5A0541F4480F5A0D280858025
:08109C002D53A01FE4F55022C2
:1010A400E52DF580E5A0541F4480F5A0C28185801C
:0810B4002D53A01F755101220C
:1010BC00E52DF580E5A0541F4480F5A0D2818580F4
:0810CC002D53A01F75510122F4
:10119100E52DF580E5A0541F4480F5A0C28285802D
:0511A1002D53A01F22E8
:1011A600E52DF580E5A0541F4480F5A0D282858008
:0511B6002D53A01F22D3
:1011BB00E52DF580E5A0541F4480F5A0C283858002
:0511CB002D53A01F22BE
:1011D000E52DF580E5A0541F4480F5A0D2838580DD
:0511E0002D53A01F22A9
:1011E500E52DF580E5A0541F4480F5A0C2848580D7
:0511F5002D53A01F2294
:10114C00E52DFF5FF580E5A0541F4480F5A0D28407
:07115C0085802D53A01F2226
:1011FA00E52DF580E5A0541F4480F5A0C2858580C1
:05120A002D53A01F227E
:10120F00E52DF580E5A0541F4480F5A0D28585809B
:05121F002D53A01F2269
:1010D400E52DF580E5A0541F4480F5A0C2868580E7
:0810E4002D53A01F75560122D7
:1010EC00E52DF580E5A0541F4480F5A0D2868580BF
:0810FC002D53A01FE4F556225C
:10110400E52DF580E5A0541F4480F5A0C2878580B5
:081114002D53A01F75570122A5
:10111C00E52DF580E5A0541F4480F5A0D28785808D
:08112C002D53A01FE4F557222A
:100849007580FFE5A0541F44C0F5A0E516F5823375
:1008590095E0F58374432582F582740E3583F5831B
:10086900E493F58053A01FE516B40800400302097C
:1008790020900881F82828730208990208A4020820
:10088900AF0208BA0208C60208D20208FB02090D23
:10089900E5A0541F44E0F5A0EF8061E5A0541F4492
:1008A900E0F5A0ED8056E5A0541F44E0F5A0EB80EB
:1008B9004BE5A0541F44E0F5A0E511803FE5A054A5
:1008C9001F44E0F5A0E5128033E5A0541F44E0F58C
:1008D900A0E53E64016005E53EB4040CE513900E05
:1008E9003493547FF580802CE513900E3493F58072
:1008F9008022E5A0541F44E0F5A0E514900E34933E
:10090900F5808010E5A0541F44E0F5A0E515900E90
:100919003493F58053A01F0516E516B40803E4F5D2
:0109290016B7
:01092A0022AA
:041271007F647E0018
:0B127500EF1FAC0670011E4C70F6224B
:10113400E5B0F4540FFD7002FF22121271ED70023B
:07114400FF22121271AF053A
:01114B002281
:100F0E00121134EF601E14601714601024FE600876
:100F1E0024FC7013752E0122752E0222752E0322CB
:080F2E00752E0422E4F52E22C9
:100D4F0075B0CFC2C4C2C2E5B0F4540F7002FF2217
:100D5F0012127175B0CFC2C4C2C2E5B0F4540FFF06
:100D6F007002FF2275B0F0D2C4D2C2E5B0F4543095
:100D7F00FE20C40343068020C203430640EF2EFF2C
:010D8F002241
:100A8000120D4FEF1208230AFE000AFA110AF6129D
:100A90000AF2140AEE180AEA210AE6220AE2240AF5
:100AA000DE280ADA410AD6420AD2440ACE480ACAE5
:100AB000810AC6820AC2840ABE8800000B01752E14
:100AC0000422752E0522752E0622752E0722752EFC
:100AD0000822752E0922752E0A22752E0B22752EDC
:100AE0000C22752E0D22752E0E22752E0F22752EBC
:100AF0001022752E1122752E1222752E1322E4F566
:020B00002E22A3
:100FA7008F178D181212807FA0120EE2121260AFF7
:100FB70017120EE2121260AF18120EE2121260023E
:020FC70012A76F
:020EB2008F08A7
:100EB4001212807FA0120EE2121260AF08120EE22C
:100EC4001212601212807FA1120EE212126012102E
:0D0ED400078F09D20912117A1212A7AF0977
:010EE10022EE
:090C73007A007941750C037F0140
:080C7C008F088B098A0A890B1D
:100C84001212807FA0120EE2121260AF08120EE25E
:100C9400121260E4F50DE50DC3950C501AAB09AAC8
:100CA4000AA90B850D82758300120729FF120EE233
:0A0CB400121260050D80DF0212A786
:080B02008F088B098A0A890B98
:100B0A001212807FA0120EE2121260AF08120EE2D9
:100B1A001212601212807FA1120EE2121260E4F524
:100B2A000DE50C14FFE50DC39F501C121007AB090D
:100B3A00AA0AA90B850D82758300EF120756C2090E
:100B4A0012117A050D80DA121007E50C7C0024FFD9
:100B5A00F582EC34FFF583AB09AA0AA90BEF120759
:090B6A0056D20912117A0212A7F9
:10102400120F367FCC120FE97F4E120FE9E4FF1244
:0C1034000FE9E4FF120FE97F7F020FE9D3
:100D9000120F367FCC120FE97FBE120FE912105AE4
:100DA0008F0912105A8F08120F367FCC120FE97F6D
:100DB00044120FE9E508FE7C00E42509FFEC3EFE45
:100DC0007D19120778EF7802CEC313CE13D8F9FF3E
:010DD0002200
:100B7300E54175F00A84C454F0FFE54175F00A8439
:100B8300EF25F0F561E54275F00A84C454F0FFE502
:100B93004275F00A84EF25F0F564E54375F00A84A5
:0F0BA300C454F0FFE54375F00A84EF25F0F566C2
:100BB200E4FD7F8E121239AD617F84121239AD6469
:0C0BC2007F82121239AD667F800212396A
:100CBE007F85120E4B8F5FE55FC4540F75F00AA44B
:100CCE00FFE55F540F2FF55F7F83120E4B8F65E5A7
:100CDE0065C4540F75F00AA4FFE565540F2FF56532
:100CEE007F81120E4B8F69E569C4540F75F00AA40B
:090CFE00FFE569540F2FF569228E
:020D07008F0853
:100D09001212807F90120EE2121260E508B40104FB
:100D19007F018007E508B402057F03120EE2121273
:100D2900601212A77FF47E011212751212807F9150
:100D3900120EE21212601210078F09D20912117AEB
:050D49001212A7AF0922
:010D4E002282
:100FC9008F191212807F90120EE21212607F401266
:100FD9000EE2121260AF19120EE21212600212A78B
:10122400E58954F04401F589758CF8758A30D2AF9C
:05123400D2A9D28C22BA
:0412B30053890F222A
:100F5D007F08C28E758DFF758BF4C28FD28EAE0752
:100F6D001FEE6010C290308FFDC28FD290308FFD7A
:040F7D00C28F80EAB5
:010F8100224D
:100DD100120F5DC28EE4F58B758DE0C28FD28E301D
:100DE1009103308FFAC28E308F09C28F754D037512
:100DF1004EE722E58D541FAD8BFCEC1206567B04A9
:100E01007AE7798C783C1204AB12068F8E4D8F4EA7
:010E110022BE
:100BCE007F10C290D28EAE071FEE6012308FFDA244
:100BDE0090B39290758DFF758BF4C28F80E8C28EA4
:100BEE00E4F58BF58DD28E309103308FFAC28E30B4
:100BFE008F05C28F7FE722AF8DEFFEAD8B7C00E4B9
:100C0E002DFDEC3EFC1206567B967A43798B783C92
:060C1E001204AB12068F68
:010C240022AD
:10116300759850438E01438E0475D7C775D6FE43D9
:071173008E10D2ACD2AF22B6
:080003008F993099FDC299228A
:100F82008B088A09890AAB08AA09A90A1207106004
:100F920013050AE50A7002050914F9120710FF1277
:050FA200000380E222C3
:100C2500E5A0541F4480F5A07580FF53A01FE5A0E3
:100C3500541F44A0F5A0E4F58053A01FE5A0541F60
:100C450044C0F5A07580FF53A01FE5A0541F44E0E4
:100C5500F5A07580FF752C0A752B0A752A0A75276C
:0E0C65000A75260A75250A75230A75220A22C9
:0112B7002214
:10002600120C25E4FF120EB27562008F631212B332
:100036001212241210247B007A007941750C037F7A
:1000460001120B02120B731211637BFF7A0E7912E7
:10005600120F823005FDC2051212B7120BCE754D76
:10006600008F4E120A80E52EB40D181210A4120D40
:100076004FEF70FA1210BC053EE53ED394054003DF
:10008600E4F53EE52EB40C0E121191120D4FEF70F1
:10009600FA1211A6B208E52EB4050E121074120D4E
:1000A6004FEF70FA12108C0560D3E53D94F4E53CF1
:1000B60094014029E560B4010CE55670051210D490
:1000C60080031210ECE560B4020CE55770051211BE
:1000D60004800312111CE4F53CF53DF560E52E6441
:1000E6000870671211FA120D4FEF70FA12120FE52F
:1000F6004FB4011A0530E5307002052FD39417E589
:100106002F648094804043E4F52FF530803CE54F22
:10011600B4021A0532E53270020531D3943BE5315B
:10012600648094804024E4F531F532801DE54FB4B7
:1001360003180535E53570020534D3943BE5346480
:100146008094804005E4F534F535E52E6409706445
:100156001211FA120D4FEF70FA12120FE54FB40199
:1001660019E53015307002152FC3E52F6480948091
:100176005042752F00753017803AE54FB40219E5E5
:1001860032153270021531C3E531648094805024F3
:1001960075310075323B801CE54FB40317E5351504
:1001A6003570021534C3E534648094805006753486
:1001B6000075353BE52E6404703E1211BBD2031266
:1001C6000D4FEF70FA1211D012114CC203E4F54B29
:1001D600F54C300104054FC201E54F64047019E582
:1001E6003E64027010853041853242853543FB12EC
:1001F6000C73120B73E4F54FE55E605454F0245013
:10020600601F24F0603E24207046852D80E5A054B2
:100216001F4480F5A0E55EF444F0FFE580440F80BE
:1002260018852D80E5A0541F4480F5A0E55EF4C432
:1002360054F0440FFFE58044F05FF58085802D5330
:10024600A01F80097BFF7A0E791C120F82E4F55EEF
:10025600300405C204120CBE120D908E3F8F4085ED
:100266005F418565428569437B00120C73E53E70EC
:100276003CE55F75F00A84F522E55F75F00A848532
:10028600F02375250BE56575F00A84F526E5657599
:10029600F00A8485F027752A0BE56975F00A84F55E
:1002A6002BE56975F00A8485F02C020059E53E6459
:1002B600017048853E2275230A75250A75260AAE01
:1002C6003FAF407C037DE812078A8F27AE3FAF40E1
:1002D6007C007D6412078A7C007D0A12078A8D2ABB
:1002E600AE3FAF407C007D0A12078A7C007D0A1271
:1002F600078A8D2BAE3FAF40020470E53E64026074
:1003060003020396D202E54F6401700B30060875AE
:10031600220A75230A801AAE2FAF307C007D0A129E
:1003260007DF8F22AE2FAF307C007D0A1207DF8DEC
:1003360023E54F6402700B30060875260A75270AF6
:10034600801AAE31AF327C007D0A1207DF8F26AEEF
:1003560031AF327C007D0A1207DF8D27E54F64033B
:10036600700B300608752B0A752C0A801AAE34AF4E
:10037600357C007D0A1207DF8F2BAE34AF357C004B
:100386007D0A1207DF8D2C75250B752A0B02005985
:10039600E53E6403703C853E2275230A75250A7581
:1003A600260A75270AAE4DAF4EFC7D6412078A8F6A
:1003B6002AAE4DAF4E7C007D6412078A7E007F0A0E
:1003C600CFCDCFCECCCE12078A8F2BAE4DAF4E02FD
:1003D6000470E53E6404600302047C7F01120D078D
:1003E6008F377E007C007D05120778AC06AD07ECE2
:1003F600120656E4FBFA797F78431205B48F5D8EB8
:100406005C8D5B8C5AE4FFFE7DC87C42AB5DAA5CCA
:10041600A95BA85A1204AB12068F8E288F29853E37
:1004260022E53775F06484F523E53775F06484E5D5
:10043600F075F00A84F525E53775F00A8485F0260F
:1004460075270B7C007D6412078A8F2AAE28AF2998
:100456007C007D6412078A7E007F0ACFCDCFCECC8A
:10046600CE12078A8F2BAE28AF297C007D0A120791
:100476008A8D2C020059E53E640560030200598509
:100486003E2275230A75250A75260A75270A752AD6
:100496000BE56075F00A84F52BE56075F00A848536
:0504A600F02C020059DA
:03000B0002092BBC
:10092B00C0E0C083C082C0D075D000C000C003C07F
:10093B0005C007758CF8758A30D205054AE54A70F3
:10094B000205490559E5597002055864644558700C
:10095B0006D204F558F559E54AB4F40DE549B4014E
:10096B0008D207754900754A00300734C2073008B2
:10097B0008053AE53A70020539300318E53EB40232
:10098B0013054CE54C7002054B6402454B70051288
:10099B0011E5D201E53A640945397004F539F53AA8
:1009AB000568E5687002056764FA45677006F567C8
:1009BB00F568B206E5606008053DE53D7002053C53
:1009CB00852611852712852A13852B14852C15ABAB
:1009DB0025AD23AF22120849D007D005D003D00094
:0909EB00D0D0D082D083D0E032DC
:0300230002128F37
:0C128F00309808C29885993685995E3227
:10124D00E4FEC297EF1392A3EFC313FFD2970EBE26
:02125D0008F097
:01125F00226C
:10123900C29300C29700D2930012124DAF05121249
:041249004DC29322DD
:100E4B00E4FDC29300C29700D2930012124DE4FF4F
:100E5B00C297EDC313FD30A303430580D2970FBF99
:100E6B0008EEC29300C29700D29700C2A300D2A390
:030E7B0000AF05C0
:010E7E002251
:04129B00D2A07F0559
:08129F0000AE071FEE70F922FA
:0F128000D2A112129BC2A17F0512129FC2A022FF
:0C12A700C2A112129BD2A17F0502129F6F
:10117A00C2A0A20992A17F0512129F12129BC2A0BD
:07118A00D2A17F0502129FB4
:1012600012129BA2A19209C2A07F0512129FA2098D
:01127000225B
:020EE200AD075A
:100EE400E4FCC2A07F0512129FED30E704D2A1807A
:100EF40002C2A17F0512129FD2A0ED25E0FD7F055D
:090F040012129F0CBC08DBC2A014
:010F0D0022C1
:10100700E4FC12129BED25E0FD30A103430501C26C
:0C101700A07F0512129F0CBC08E8AF057A
:0110230022AA
:041040007F057E00AA
:10104400EF1FAA0670011E4A600BE4FDEDC3940C69
:0510540050EE0D80F7D5
:011059002274
:020FE900A90756
:100FEB00E4FBC294E9139294121040D294E9C31318
:0C0FFB00F90BBB08ED7F057E00021044DE
:10105A00E4FBC294ECC313FCD2943094034304809F
:09106A001210400BBB08EBAF04AF
:01107300225A
:100F3600C209D2947F0C7E00121044C2947F507E68
:100F460000121044D2947F0A7E00121044A294929A
:060F560009121040A2097F
:010F5C002272
:1004AB00EC4D6011E8497017ED33EC3304600DE44B
:1004BB00FCFFFEFD22E933E8330470F80206FB1261
:1004CB0006C658046009E4CC248150062850090262
:1004DB000705284003020702C0E0EB4A7044B980CD
:1004EB0006D0E0FB0206F1EF4E701CBD8008EBFF5F
:1004FB00EAFEE9FD80EBE98DF0A4FEE5F002059440
:10050B00E9CDF9EAFEEBFFEF89F0A4FCE5F0CE892B
:10051B00F0A42EFFE435F0CD89F0A42DFEE435F0E8
:10052B008067EF4E7005BD80D780C3EF8BF0A4AC16
:10053B00F0EE8BF0A42CFCE435F0F8EF8AF0A42C51
:10054B00E5F038FCE433CB8DF0A42CFCE5F03BF864
:10055B00EE8AF0A42CFCE5F038F8E433CF89F0A454
:10056B002CFCE5F038CF3400CE89F0A42FFFE5F05A
:10057B003EFEE433C98DF0A42EFEE5F039CD8AF0B2
:10058B00A42FFFE5F03EFEE43DFD33D0E0FB50072A
:10059B000BBB000F020705EC2CFCEF33FFEE33FE19
:0605AB00ED33FD0206DD48
:1005B100020705EC5D046005E8590470030206FBBF
:1005C1001206C6580460F6EC4860F2EC7004FDFEB9
:1005D100FF22C860DB2481C85009C398600250061D
:1005E1000207029850CAF582E9294B4A7005AB828D
:1005F1000206F175F0007C1A7880C3EF9BEE9AED4C
:1006010099400DC3EF9BFFEE9AFEED99FDE842F094
:10061100DC23ACF0D0E0FFD0E0FED0E0FDAB8220E7
:10062100E7101BEB60BAEC2CFCEF33FFEE33FEED71
:1006310033FD0206DDE803F830E705C0F075F00090
:10064100EF2FFFEE33FEED33FD40B830E7C280AA55
:1006510075F020800E75F010800575F0087D007E24
:10066100007F003392D530D503120815EC334010CA
:10067100EF33FFEE33FEED33FDEC33FCD5F0ED222D
:0E068100E5F0247EA2D513CC92E7CDCEFF2269
:10068F00EDD2E7CD33EC3392D524814006E4FFFE63
:10069F00FDFC22FCE4CFCECDCC24E0501174FF80C2
:1006AF00EDC3CC13CCCD13CDCE13CECF13CF04705F
:0706BF00F030D5DE02081542
:1006C600E9D2E7C933E833F892D5EDD2E7CD33EC7A
:0706D60033FC5002B2D522F3
:1006DD00EC30E7100FBF000C0EBE00080DBD00047E
:1006ED000BEB6014A2D5EB13FCED92E7FD2274FF2A
:1006FD00FCFDFEFF22E480F8A2D574FF13FC7D8083
:03070D00E480EF96
:100A0000020026E493A3F8E493A34003F68001F2E6
:100A100008DFF48029E493A3F85407240CC8C333F7
:100A2000C4540F4420C8834004F456800146F6DFC6
:100A3000E4800B0102040810204080900E7FE47EC9
:100A4000019360BCA3FF543F30E509541FFEE493BB
:100A5000A360010ECF54C025E060A840B8E493A382
:100A6000FAE493A3F8E493A3C8C582C8CAC583CAAD
:100A7000F0A3C8C582C8CAC583CADFE9DEE780BE65
:010EB1000040
:10071000BB010689828A83E0225002E722BBFE02E7
:09072000E32289828A83E493221A
:10072900BB010CE58229F582E5833AF583E0225085
:1007390006E92582F8E622BBFE06E92582F8E222CF
:0D074900E58229F582E5833AF583E49322E9
:10075600F8BB010DE58229F582E5833AF583E8F0D9
:10076600225006E92582C8F622BBFE05E92582C885
:02077600F2226D
:10077800EF8DF0A4A8F0CF8CF0A428CE8DF0A42E95
:02078800FE224F
:10078A00BC000BBE0029EF8DF084FFADF022E4CC53
:10079A00F875F008EF2FFFEE33FEEC33FCEE9DEC1C
:1007AA00984005FCEE9DFE0FD5F0E9E4CEFD22ED62
:1007BA00F8F5F0EE8420D21CFEADF075F008EF2FAC
:1007CA00FFED33FD4007985006D5F0F222C398FD9D
:0507DA000FD5F0EA223A
:1007DF00C2D5EC30E709B2D5E4C39DFDE49CFCEE35
:1007EF0030E715B2D5E4C39FFFE49EFE12078AC31C
:1007FF00E49DFDE49CFC800312078A30D507C3E417
:06080F009FFFE49EFE22A3
:0E081500C3E49FFFE49EFEE49DFDE49CFC22F4
:10082300D083D082F8E4937012740193700DA3A364
:1008330093F8740193F5828883E473740293686078
:06084300EFA3A3A380DF78
:00000001FF
