:030000000208BF34
:0C08BF00787FE4F6D8FD75812902090657
:100C7000C0F9A4B0999282F88090FFBF8EC8C101DC
:070C8000020408102040806F
:0F0DAD000110FF021600000218000002140000DF
:100C8700EF1FAC0670011E4C70F6EF1FAC0670012B
:050C97001E4C70F62266
:100C9C00E510F580E5A0541F4480F5A0C280858046
:050CAC001053A01F22FF
:100CB100E510F580E5A0541F4480F5A0D280858021
:050CC1001053A01F22EA
:100CC600E510F580E5A0541F4480F5A0C28185801B
:050CD6001053A01F22D5
:100CDB00E510F580E5A0541F4480F5A0D2818580F6
:050CEB001053A01F22C0
:100CF000E510F580E5A0541F4480F5A0C2828580F0
:050D00001053A01F22AA
:100D0500E510F580E5A0541F4480F5A0D2828580CA
:050D15001053A01F2295
:100D1A00E510F580E5A0541F4480F5A0C2838580C4
:050D2A001053A01F2280
:100C4200E510FF5FF580E5A0541F4480F5A0D28334
:070C520085801053A01F2252
:100D2F00E510F580E5A0541F4480F5A0C2848580AE
:050D3F001053A01F226B
:100D4400E510F580E5A0541F4480F5A0D284858089
:050D54001053A01F2256
:100D5900E510F580E5A0541F4480F5A0C285858083
:050D69001053A01F2241
:100D6E00E510F580E5A0541F4480F5A0D28585805E
:050D7E001053A01F222C
:100C59008F1AE510F580E5A0541F4480F5A0C285E0
:070C690085801053A01F223B
:100800007580FFE5A0541F44C0F5A0E529F58233AB
:1008100095E0F583747F2582F582740C3583F5832A
:10082000E493F58053A01FE529B4080040030208B3
:10083000B4900838F828287302085002085B0208B0
:100840006602087102087D0208890208950208A163
:10085000E5A0541F44E0F5A0EF8050E5A0541F44EC
:10086000E0F5A0ED8045E5A0541F44E0F5A0EB8045
:100870003AE5A0541F44E0F5A0E524802EE5A054FD
:100880001F44E0F5A0E5258022E5A0541F44E0F5D3
:10089000A0E5268016E5A0541F44E0F5A0E52780DA
:1008A0000AE5A0541F44E0F5A0E528900C7093F5EC
:0E08B0008053A01F0529E529B40803E4F529AB
:0108BE002217
:040DBD007F647E00D1
:0B0DC100EF1FAC0670011E4C70F62204
:100C2A00E5B0F4540FFD7002FF22120DBDED700203
:070C3A00FF22120DBDAF0502
:010C41002290
:100C0200120C2AEF601E14601714601024FE600894
:100C120024FC701375110122751102227511032231
:080C220075110422E4F5112212
:100BD10020B009120DBD20B00330B0FD20B10912C3
:100BE1000DBD20B10330B1FD20B209120DBD20B2FF
:100BF1000330B2FD20B309120DBD20B30330B3FDA4
:010C010022D0
:100B550075B0CFC2C4C2C2E5B0F4540F7002FF2213
:100B6500120DBD75B0CFC2C4C2C2E5B0F4540FFFBB
:100B75007002FF2275B0F0D2C4D2C2E5B0F4543091
:100B8500FE20C40343068020C203430640EF2EFF28
:010B9500223D
:10094B00120B55EF120A9D09C90009C51109C112F5
:10095B0009BD1409B91809B52109B12209AD24093A
:10096B00A92809A54109A142099D4409994809955E
:10097B0081099182098D84098988000009CC751140
:10098B0004227511052275110622751107227511A6
:10099B0008227511092275110A2275110B22751186
:1009AB000C2275110D2275110E2275110F22751166
:1009BB001022751111227511122275111322E4F5F3
:0209CB001122F7
:100D8300E58954F04401F589758C3C758AB0D2AF7E
:050D9300D2A9D28C2260
:100D9800E589540F4410F589758DF8758B30D2AFFD
:050DA800D2ABD28E2247
:100AC300E5A0541F4480F5A07580FF53A01FE5A047
:100AD300541F44A0F5A0E4F58053A01FE5A0541FC4
:100AE30044C0F5A07580FF53A01FE5A0541F44E048
:100AF300F5A07580FF750F0A750E0A750D0A750C42
:0E0B03000A750B0A750A0A75090A75080A2296
:010DCC002204
:1009CD00120AC3120D98120D833001FDC201120DD2
:1009DD00CC12094BE511B4100C120C9C120B55EFF7
:1009ED0070FA120CB1AE12AF137C007D0A120A48D8
:1009FD008F08AE12AF137C007D0A120A488D09755F
:100A0D000D0B750A0BAE14AF157C007D0A120A484A
:100A1D008F0BAE14AF157C007D0A120A488D0CAEFB
:100A2D0018AF197C007D0A120A488F0EAE18AF1947
:0B0A3D007C007D0A120A488D0F808E9D
:03001300020B9647
:100B9600C0E0758C3C758AB0D2000519E519700263
:100BA600051864144518700CF518F5190515E515A2
:100BB60070020514E515643C4514700CF514F51522
:0B0BC6000513E51370020512D0E032A9
:03001B00020B11C4
:100B1100C0E0C083C082C0D075D000C000C003C097
:100B210005C007758DF8758B30D201850B24850CB6
:100B310025850D26850E27850F28AB0AAD09AF083F
:100B4100120800D007D005D003D000D0D0D082D079
:040B510083D0E0323B
:1008CB000209CDE493A3F8E493A34003F68001F26D
:1008DB0008DFF48029E493A3F85407240CC8C3332E
:1008EB00C4540F4420C8834004F456800146F6DFFD
:1008FB00E4800B0102040810204080900DADE47ED3
:10090B00019360BCA3FF543F30E509541FFEE493F1
:10091B00A360010ECF54C025E060A840B8E493A3B8
:10092B00FAE493A3F8E493A3C8C582C8CAC583CAE3
:10093B00F0A3C8C582C8CAC583CADFE9DEE780BE9B
:010DBC000036
:100A4800BC000BBE0029EF8DF084FFADF022E4CC92
:100A5800F875F008EF2FFFEE33FEEC33FCEE9DEC5B
:100A6800984005FCEE9DFE0FD5F0E9E4CEFD22EDA1
:100A7800F8F5F0EE8420D21CFEADF075F008EF2FEB
:100A8800FFED33FD4007985006D5F0F222C398FDDC
:050A98000FD5F0EA2279
:100A9D00D083D082F8E4937012740193700DA3A3E8
:100AAD0093F8740193F5828883E4737402936860FC
:060ABD00EFA3A3A380DFFC
:00000001FF
