:0E02FD0080828486888A8C81838587898B8D98
:0802A100060E02030509050524
:10028500E4FEEEC3940874809480500FC297EF1378
:0B02950092A3EFC313FFD2970E80E787
:0102A000223B
:1002BC00C29300C29700D29300120285AF051202BE
:0402CC0085C2932232
:1001DE00E4FDC29300C29700D29300120285E4FFA1
:1001EE00EFC39408748094805011C297EDC313FD31
:1001FE0030A303430580D2970F80E5C29300C293CC
:0E020E00C29700D29700C2A300D2A300AF0592
:01021C0022BF
:1000F7007BFF7A037904E4FCECC394037480948057
:100107005017120198FF1201DE74212CF8A607740C
:100117000129F9E43AFA0C80DFE523C4540FF50806
:10012700E523540FF509E522C4540FF50AE52254D7
:100137000FF50BE521C4540FF50CE521540FF50D10
:060147007B007A0079083C
:01014D00228F
:10021D00E4FD7F8E1202BC9002FDE493FFE512C453
:10022D0054F04513FD1202BCA3E493FFE510C45432
:10023D00F04511FD1202BCA3E493FFE50EC454F08A
:0D024D00450FFD1202BC7D807F8E0202BCB9
:0C030B00C0F9A4B0999282F88090FFBF66
:1002A90008140A0A0A0A0A0A0A0A011C00011D009E
:0202B900C10082
:0F02D000E5A0541F44A0F5A0E4F58053A01F2221
:0F02DF00E5A0541F4480F5A07580FF53A01F2297
:0E02EE0000007F057E347DC3DDFEDEFCDFFAFE
:0102FC0022DF
:10009A001202D01202DF438E805389F0758ACD7521
:1000AA008CD4C28DD28CD2A9D2AF1202EE12021D0A
:1000BA003000FDC2001200F7120198F514900001F9
:1000CA001201B1F51575160B9000021201B1F51760
:1000DA009000031201B1F51875190B900004120172
:0D00EA00B1F51A9000051201B1F51B80C39D
:10014E00E5A0541F44E0F5A07580FF53A01FE5A065
:10015E00541F44C0F5A0AF1CA8077401088002C349
:10016E0033D8FCF58053A01FE5A0541F44E0F5A042
:10017E007414251CF8E690030B93F58053A01F050D
:0A018E001CE51C64087002F51C2239
:03000B0002025A94
:10025A00C0E0C083C082C0D075D000C000C007050E
:10026A001DE51D64C87004F51DD20012014ED007A9
:0B027A00D000D0D0D082D083D0E03282
:0300000002000EED
:0C000E00787FE4F6D8FD758123020055D0
:10019800BB010689828A83E0225002E722BBFE0265
:0901A800E32289828A83E4932298
:1001B100BB010CE58229F582E5833AF583E0225003
:1001C10006E92582F8E622BBFE06E92582F8E2224D
:0D01D100E58229F582E5833AF583E4932267
:10001A0002009AE493A3F8E493A34003F68001F262
:10002A0008DFF48029E493A3F85407240CC8C333E7
:10003A00C4540F4420C8834004F456800146F6DFB6
:10004A00E4800B01020408102040809002A1E47EA3
:10005A00019360BCA3FF543F30E509541FFEE493AB
:10006A00A360010ECF54C025E060A840B8E493A372
:10007A00FAE493A3F8E493A3C8C582C8CAC583CA9D
:10008A00F0A3C8C582C8CAC583CADFE9DEE780BE55
:0102BB000042
:00000001FF
