:0300000002096A88
:0C096A00787FE4F6D8FD7581290209B100
:100CBB00C0F9A4B0999282F88090FFBF8EC8C10191
:070CCB000204081020408024
:100E0D000111FF0216000002130000011800011568
:040E1D0000010A00C6
:100CD200EF1FAC0670011E4C70F6EF1FAC067001E0
:050CE2001E4C70F6221B
:100CE700E511F580E5A0541F4480F5A0C2808580FA
:050CF7001153A01F22B3
:100CFC00E511F580E5A0541F4480F5A0D2808580D5
:050D0C001153A01F229D
:100D1100E511F580E5A0541F4480F5A0C2818580CE
:050D21001153A01F2288
:100D2600E511F580E5A0541F4480F5A0D2818580A9
:050D36001153A01F2273
:100D3B00E511F580E5A0541F4480F5A0C2828580A3
:050D4B001153A01F225E
:100D5000E511F580E5A0541F4480F5A0D28285807E
:050D60001153A01F2249
:100D6500E511F580E5A0541F4480F5A0C283858078
:050D75001153A01F2234
:100D7A00E511F580E5A0541F4480F5A0D283858053
:050D8A001153A01F221F
:100D8F00E511F580E5A0541F4480F5A0C28485804D
:050D9F001153A01F220A
:100C8D00E511FF5FF580E5A0541F4480F5A0D284E7
:070C9D0085801153A01F2206
:100DA400E511F580E5A0541F4480F5A0C285858037
:050DB4001153A01F22F5
:100DB900E511F580E5A0541F4480F5A0D285858012
:050DC9001153A01F22E0
:100DCE00E511F580E5A0541F4480F5A0C28685800C
:050DDE001153A01F22CB
:100DE300E511F580E5A0541F4480F5A0D2868580E7
:050DF3001153A01F22B6
:100CA4008F19E511F580E5A0541F4480F5A0C28694
:070CB40085801153A01F22EF
:100800007580FFE5A0541F44C0F5A0E529F58233AB
:1008100095E0F58374CA2582F582740C3583F583DF
:10082000E493F58053A01FE529B4080040030208B3
:10083000B4900838F828287302085002085B0208B0
:100840006602087102087D0208890208950208A163
:10085000E5A0541F44E0F5A0EF8050E5A0541F44EC
:10086000E0F5A0ED8045E5A0541F44E0F5A0EB8045
:100870003AE5A0541F44E0F5A0E524802EE5A054FD
:100880001F44E0F5A0E5258022E5A0541F44E0F5D3
:10089000A0E5268016E5A0541F44E0F5A0E52780DA
:1008A0000AE5A0541F44E0F5A0E528900CBB93F5A1
:0E08B0008053A01F0529E529B40803E4F529AB
:0108BE002217
:040E35007F647E0058
:0B0E3900EF1FAC0670011E4C70F6228B
:100C7500E5B0F4540FFD7002FF22120E35ED70023F
:070C8500FF22120E35AF053E
:010C8C002245
:100C4D00120C75EF601E14601714601024FE6008FE
:100C5D0024FC7013751201227512022275120322E3
:080C6D0075120422E4F51222C5
:100C1C0020B009120E3520B00330B0FD20B10912FE
:100C2C000E3520B10330B1FD20B209120E3520B2C1
:100C3C000330B2FD20B309120E3520B30330B3FDDF
:010C4C002285
:100BA70075B0CFC2C4C2C2E5B0F4540F7002FF22C1
:100BB700120E3575B0CFC2C4C2C2E5B0F4540FFFF0
:100BC7007002FF2275B0F0D2C4D2C2E5B0F454303F
:100BD700FE20C40343068020C203430640EF2EFFD6
:010BE70022EB
:1009F600120BA7EF120ACD0A74000A70110A6C12C4
:100A06000A68140A64180A60210A5C220A58240A31
:100A160054280A50410A4C420A48440A44480A40AB
:100A2600810A3C820A38840A348800000A777512E3
:100A360004227512052275120622751207227512F6
:100A460008227512092275120A2275120B227512D6
:100A56000C2275120D2275120E2275120F227512B6
:100A66001022751211227512122275121322E4F544
:020A760012224A
:100E2200E58954F04401F589758CFF758A9CD2AF2F
:030E3200D2A92220
:100DF800E589540F4410F589758DF8758B30D2AF9D
:050E0800D2ABD28E22E6
:100B5900E5A0541F4480F5A07580FF53A01FE5A0B0
:100B6900541F44A0F5A0E4F58053A01FE5A0541F2D
:100B790044C0F5A07580FF53A01FE5A0541F44E0B1
:100B8900F5A07580FF75100A750F0A750E0A750DA7
:0E0B99000A750C0A750B0A75090A75080A22FE
:010E4400228B
:100AF300120B59120DF8120E223001FDC201120E13
:100B0300441209F6E512B4100C120D11120BA7EFE3
:100B130070FA120D26E512B40710120BA7EF70FA44
:100B23000518E518B40403E4F518E5187007C28C3A
:100B3300120CFC80C4E518B40107D28C750A0A8034
:100B4300B8E518B40205750A3280AEE5186403707F
:060B5300A8750A5A80A3F8
:03001300020BE8F5
:100BE800C0E0C0D0758CFF758A9C0515E515D395B6
:100BF8000A5005120CE78017E515C39464500512D6
:100C08000CFC800BE515B46406120CE7751500D0D2
:040C1800D0D0E03226
:03001B000208BF19
:1008BF00C0E0C0F0C083C082C0D075D000C000C0FF
:1008CF0003C004C005C006C007758DF8758B30D204
:1008DF00010517E51770020516B4F40DE516B401FE
:1008EF0008D202751600751700300214C2020514E3
:1008FF00E51470020513640A45137004F513F5141B
:10090F00750802750900750B0285180C750E0B75AD
:10091F000D0BAE13AF147C007D0A120A788F0FAE49
:10092F0013AF147C007D0A120A788D10850C248574
:10093F000D25850E26850F27851028AB0BAD09AF2A
:10094F0008120800D007D006D005D004D003D0007D
:0B095F00D0D0D082D083D0F0D0E032A6
:10097600020AF3E493A3F8E493A34003F68001F29A
:1009860008DFF48029E493A3F85407240CC8C33382
:10099600C4540F4420C8834004F456800146F6DF51
:1009A600E4800B0102040810204080900E0DE47EC6
:1009B600019360BCA3FF543F30E509541FFEE49346
:1009C600A360010ECF54C025E060A840B8E493A30D
:1009D600FAE493A3F8E493A3C8C582C8CAC583CA38
:1009E600F0A3C8C582C8CAC583CADFE9DEE780BEF0
:010E210000D0
:100A7800BC000BBE0029EF8DF084FFADF022E4CC62
:100A8800F875F008EF2FFFEE33FEEC33FCEE9DEC2B
:100A9800984005FCEE9DFE0FD5F0E9E4CEFD22ED71
:100AA800F8F5F0EE8420D21CFEADF075F008EF2FBB
:100AB800FFED33FD4007985006D5F0F222C398FDAC
:050AC8000FD5F0EA2249
:100ACD00D083D082F8E4937012740193700DA3A3B8
:100ADD0093F8740193F5828883E4737402936860CC
:060AED00EFA3A3A380DFCC
:00000001FF
