:100AF900C0F9A4B0999282F88090FF8EC1010204D6
:050B09000810204080EF
:040B5D00C101C1020F
:080B54007F757EB8DEFEDFFCB8
:010B5C002276
:1007A2007580FFE5A0541F44C0F5A0E529F582330A
:1007B20095E0F58374062582F582740B3583F58303
:1007C200E493F58053A01FE529B408004003020812
:1007D2007A9007DAF82828730207F20207FD020866
:1007E2000802081302081F02082B020855020867B4
:1007F200E5A0541F44E0F5A0EF8062E5A0541F4439
:10080200E0F5A0ED8057E5A0541F44E0F5A0EB8091
:100812004CE5A0541F44E0F5A0E5248040E5A05437
:100822001F44E0F5A0E5258034E5A0541F44E0F51F
:10083200A020010F20000CE526900AF993547FF5C1
:1008420080803220010330002CE526900AF993F5CE
:10085200808022E5A0541F44E0F5A0E527900AF924
:1008620093F5808010E5A0541F44E0F5A0E52890A0
:100872000AF993F58053A01F0529E529B40803E47A
:02088200F52956
:010884002251
:10000300E5B0F4540FFF7002FF22120B54E5B0F475
:07001300540FFF7002FF22F1
:01001A0022C3
:100A5200120003EF601E14601714601024FE600879
:100A620024FC7013751401227514022275140322DA
:070A720075140422E4F514E1
:010A7900225A
:100ACE00120B1F7F90120A26120B0E7F03120A269C
:060ADE00120B0E020B4892
:1009F000120B1F7F91120A26120B0E120A9A752AE9
:100A0000008F2BD205120AB7120B48AC2AAD2BE48B
:100A100012046C7BFB7AFA79FA783F1203611204B4
:050A2000A58E2A8F2BBA
:010A250022AE
:100A7A008F2A120B1F7F90120A26120B0E7F40122A
:100A8A000A26120B0EAF2A120A26120B0E020B4866
:0E0B2E00E58954F04405F589E4F58DF58B2238
:100AE400D2AFD2ABD28EE589540F4410F589758DFF
:050AF400F8758B3022B3
:10066D003001030206F7C3E5139496E5129400508A
:10067D00117580FFE5A0541F4480F5A07580FE53D1
:10068D00A01FD3E5139496E5129400401BE5139437
:10069D00FAE512940050117580FFE5A0541F4480B7
:1006AD00F5A07580FA53A01FD3E51394FAE51294C3
:1006BD0000401BE513945EE512940150117580FF07
:1006CD00E5A0541F4480F5A07580FE53A01FD3E50F
:1006DD0013945EE512940140117580FFE5A0541F3F
:1006ED004480F5A07580FA53A01F200103020781F5
:1006FD00C3E50994E8E508940350117580FFE5A062
:10070D00541F4480F5A07580FD53A01FD3E50994B7
:10071D00E8E5089403401BE5099488E50894135017
:10072D00117580FFE5A0541F4480F5A07580F55329
:10073D00A01FD3E5099488E5089413401BE509949F
:10074D0010E508942750117580FFE5A0541F4480D3
:10075D00F5A07580FD53A01FD3E5099410E508940D
:10076D002740117580FFE5A0541F4480F5A07580CA
:10077D00F553A01F20020DE5A0541F4480F5A0D213
:10078D008453A01F30020DE5A0541F4480F5A0C274
:05079D008453A01F229F
:10001E00E5A0541F44A0F5A0E4F58053A01FE5A071
:10002E00541F4480F5A07580FF53A01F120B2E1293
:10003E000AE4120ACEE515B401FBE4F515120A52D4
:10004E0020040312066DE514B40108B20112000378
:10005E00EF70FAE514B40208B202120003EF70FA60
:10006E00E514B40308B204120003EF70FAE514B4F9
:10007E000408B200120003EF70FA3004117580FF0D
:10008E00E5A0541F4480F5A07580FF53A01F2002E9
:10009E00057F64120A7A30020BE512C313E51313BF
:1000AE00FF120A7A2001590516E516D39464400D05
:1000BE00E4F516120ACE1209F08E128F13750A0C81
:1000CE00750E0A750D0A750C0A750B0AAE12AF1372
:1000DE007C007D641205268F0FAE12AF137C007D5F
:1000EE00641205267E007F0ACFCDCFCECCCE120570
:1000FE00268F10AE12AF137C007D0A1205268D11CD
:10010E00200103020043750A0B750B0AC3E5139415
:10011E000AE5129400501275100A750F0A750E0A30
:10012E00750D0A750C0A850911D3E5099409E508C0
:10013E0094004030E5099464E50894005026750F4C
:10014E000A750E0A750D0A750C0AAE08AF097C0009
:10015E007D0A1205268F10AE08AF097C007D0A12AB
:10016E0005268D11D3E5099463E50894004047E513
:10017E000994E8E5089403503D750E0A750D0A754D
:10018E000C0AAE08AF097C007D641205268F0FAEF7
:10019E0008AF097C007D641205267E007F0ACFCD54
:1001AE00CFCECCCE1205268F10AE08AF097C007DC7
:1001BE000A1205268D11D3E50994E7E5089403404C
:1001CE005EE5099410E50894275054750D0A750CD8
:1001DE000AAE08AF097C037DE81205268F0EAE0825
:1001EE00AF097C037DE81205267E007F64CFCDCF5C
:1001FE00CECCCE1205268F0FAE08AF097C007D64E3
:10020E001205267E007F0ACFCDCFCECCCE1205268C
:10021E008F10AE08AF097C007D0A1205268D11D312
:10022E00E509940FE508942750030202BAAE08AF11
:10023E0009E4FCFD7BA07A867901F8D3120589408A
:10024E006B750C0AAE08AF097C277D101205268F40
:10025E000DAE08AF097C277D101205267E037FE8C0
:10026E00CFCDCFCECCCE1205268F0EAE08AF097CE9
:10027E00037DE81205267E007F64CFCDCFCECCCE97
:10028E001205268F0FAE08AF097C007D641205267D
:10029E007E007F0ACFCDCFCECCCE1205268F10AEEC
:1002AE0008AF097C007D0A1205268D11AE08AF0934
:1002BE00E4FCFD7BA07A867901F8C3120589400320
:1002CE00020043AE08AF09E4FCFDF81209AC8F0C36
:1002DE00AE08AF09E4FCFD7BA07A867901F812091D
:1002EE00ACAC00AD01AE02AF03E47B107A27F9F897
:1002FE001209AC8F0DAE08AF097C277D10120526B2
:10030E007E037FE8CFCDCFCECCCE1205268F0EAE9C
:10031E0008AF097C037DE81205267E007F64CFCDF1
:10032E00CFCECCCE1205268F0FAE08AF097C007D46
:10033E00641205267E007F0ACFCDCFCECCCE12051D
:10034E00268F10AE08AF097C007D0A1205268D118E
:03035E0002004357
:03001B0002088553
:10088500C0E0C083C082C0D075D000C000C003C026
:1008950004C005C006C007758DF8758B302000189B
:1008A500850D24850E25850F26851027851128ABF6
:1008B5000CAD0BAF0A1207A230001875240A752576
:1008C5000A75260A75270A75280A7B0A7D0A7F0A92
:1008D5001207A27515010516E51664FA7028F516B6
:1008E500B203200308F58AF58CD28C8019C28CAF2F
:1008F5008CEFFEAD8A7C00E42DFFEC3EFEEF25E09B
:10090500F509EE33F508D007D006D005D004D0039D
:0B091500D000D0D0D082D083D0E032E0
:040B3C00D2A07F0FB5
:080B400000AE071FEE70F92260
:0F0B1F00D2A1120B3CC2A17F0F120B40C2A02229
:0C0B4800C2A1120B3CD2A17F0F020B4097
:100AB700C2A0A20592A17F0F120B40120B3CC2A04D
:070AC700D2A17F0F020B40DA
:100B0E00120B3CA2A19205C2A07F0F120B40A205B0
:010B1E0022B4
:020A2600AD071A
:100A2800E4FCC2A07F0F120B40ED30E704D2A18096
:100A380002C2A17F0F120B40D2A0ED25E0FD7F0F6F
:090A4800120B400CBC08DBC2A03B
:010A51002282
:100A9A00E4FC120B3CED25E0FD30A103430501C245
:0C0AAA00A07F0F120B400CBC08E8AF0549
:010AB600221D
:10036100EC4D6011E8497017ED33EC3304600DE496
:10037100FCFFFEFD22E933E8330470F80205111297
:1003810004DC58046009E4CC248150062850090299
:10039100051B284003020518C0E0EB4A7044B980F0
:1003A10006D0E0FB020507EF4E701CBD8008EBFF95
:1003B100EAFEE9FD80EBE98DF0A4FEE5F002044AD6
:1003C100E9CDF9EAFEEBFFEF89F0A4FCE5F0CE8977
:1003D100F0A42EFFE435F0CD89F0A42DFEE435F034
:1003E1008067EF4E7005BD80D780C3EF8BF0A4AC62
:1003F100F0EE8BF0A42CFCE435F0F8EF8AF0A42C9D
:10040100E5F038FCE433CB8DF0A42CFCE5F03BF8AF
:10041100EE8AF0A42CFCE5F038F8E433CF89F0A49F
:100421002CFCE5F038CF3400CE89F0A42FFFE5F0A5
:100431003EFEE433C98DF0A42EFEE5F039CD8AF0FD
:10044100A42FFFE5F03EFEE43DFD33D0E0FB500775
:100451000BBB000F02051BEC2CFCEF33FFEE33FE50
:06046100ED33FD0204F37F
:1004670075F020800E75F010800575F0087D007E10
:10047700007F003392D530D50312057BEC33401053
:10048700EF33FFEE33FEED33FDEC33FCD5F0ED2219
:0E049700E5F0247EA2D513CC92E7CDCEFF2255
:1004A500EDD2E7CD33EC3392D524814006E4FFFE4F
:1004B500FDFC22FCE4CFCECDCC24E0501174FF80AE
:1004C500EDC3CC13CCCD13CDCE13CECF13CF04704B
:0704D500F030D5DE02057BCB
:1004DC00E9D2E7C933E833F892D5EDD2E7CD33EC66
:0704EC0033FC5002B2D522DF
:1004F300EC30E7100FBF000C0EBE00080DBD00046A
:100503000BEB6014A2D5EB13FCED92E7FD2274FF15
:10051300FCFDFEFF22E480F8A2D574FF13FC7D806E
:03052300E480EF82
:03000000020920D2
:0C092000787FE4F6D8FD75812B02096792
:10052600BC000BBE0029EF8DF084FFADF022E4CCB9
:10053600F875F008EF2FFFEE33FEEC33FCEE9DEC82
:10054600984005FCEE9DFE0FD5F0E9E4CEFD22EDC8
:10055600F8F5F0EE8420D21CFEADF075F008EF2F12
:10056600FFED33FD4007985006D5F0F222C398FD03
:050576000FD5F0EA22A0
:1009AC00C2D5E830E70FB2D5E4C39BFBE49AFAE476
:1009BC0099F9E498F8EC30E717B2D51209E2120570
:1009CC00DBE4C39BFBE49AFAE499F9E498F880031E
:1009DC001205DB30D50DE4C39FFFE49EFEE49DFDC4
:0409EC00E49CFC2269
:0E057B00C3E49FFFE49EFEE49DFDE49CFC2291
:10058900EB9FF5F0EA9E42F0E99D42F0EC6480C8E9
:0605990064809845F02289
:10092C0002001EE493A3F8E493A34003F68001F2C3
:10093C0008DFF48029E493A3F85407240CC8C333CC
:10094C00C4540F4420C8834004F456800146F6DF9B
:10095C00E4800B0102040810204080900B5DE47EC3
:10096C00019360BCA3FF543F30E509541FFEE49390
:10097C00A360010ECF54C025E060A840B8E493A357
:10098C00FAE493A3F8E493A3C8C582C8CAC583CA82
:10099C00F0A3C8C582C8CAC583CADFE9DEE780BE3A
:010B61000093
:10059F0075F008758200EF2FFFEE33FECD33CDCC13
:1005AF0033CCC58233C5829BED9AEC99E582984096
:1005BF000CF582EE9BFEED9AFDEC99FC0FD5F0D673
:1005CF00E4CEFBE4CDFAE4CCF9A88222B800C1B99D
:1005DF000059BA002DEC8BF084CFCECDFCE5F0CBDB
:1005EF00F97818EF2FFFEE33FEED33FDEC33FCEB14
:1005FF0033FB10D703994004EB99FB0FD8E5E4F9CF
:10060F00FA227818EF2FFFEE33FEED33FDEC33FCBB
:10061F00C933C910D7059BE99A4007EC9BFCE99AAF
:10062F00F90FD8E0E4C9FAE4CCFB2275F010EF2FF4
:10063F00FFEE33FEED33FDCC33CCC833C810D707F4
:10064F009BEC9AE899400AED9BFDEC9AFCE899F82F
:0E065F000FD5F0DAE4CDFBE4CCFAE4C8F922C2
:00000001FF
