:10019100C0F9A4B0999282F88090FF01020408107E
:0301A1002040807B
:10001E007580FFE5A0541F44C0F5A0E51AF58233A4
:10002E0095E0F583749C2582F58274013583F58302
:10003E00E493F58053A01FE51AB4080040030200B4
:10004E00E0900056F828287302006E020078020035
:10005E008402009002009C0200A80200B40200C0BC
:10006E00E5A0541F44E0F5A08052E5A0541F44E0E3
:10007E00F5A0AF058046E5A0541F44E0F5A0AF0300
:10008E00803AE5A0541F44E0F5A0AF15802EE5A000
:10009E00541F44E0F5A0AF168022E5A0541F44E0A3
:1000AE00F5A0AF178016E5A0541F44E0F5A0AF18D9
:1000BE00800AE5A0541F44E0F5A0AF19EF3395E098
:1000CE00FE74912FF58274013EF583E493F580530F
:0C00DE00A01F051AE51AB40803E4F51A87
:0100EA0022F3
:10000300D2AFD2ABD28EE589540F4410F589758DEA
:05001300F8758B30229E
:10013300E5A0541F44A0F5A0E4F58053A01FE5A05B
:10014300541F4480F5A07580FF53A01FE5A0541FE2
:1001530044C0F5A07580FF53A01FE5A0541F44E0E1
:09016300F5A07580FF53A01F22D6
:10016C001201331200033000FDC20075080175093D
:10017C0002750A03750B04750C05750D06750E07D3
:05018C00750F0880E181
:03001B000200EBF5
:1000EB00C0E0C083C082C0D075D000C000C003C0C8
:1000FB0005C006C007758DF8758B30850B15850C03
:10010B0016850D17850E18850F19AB0AAD09AF08AB
:10011B0012001ED200D007D006D005D003D000D0DD
:08012B00D0D082D083D0E03275
:030000000201A456
:0C01A400787FE4F6D8FD75812002016C24
:00000001FF
